8=FIX.4.4|9=322|35=8|1=ACC002|6=230.30144194309713|11=fbd9b24b-e260-4a93-acdc-7e63de36f514|14=277|17=dfbeb4df-51e6-4fc1-aa09-f0a84358ab53|31=30.00414839947337|32=0|37=03ad6eec-56d9-4394-a512-395bff6822ef|38=277|39=2|44=430.5987354867209|54=2|55=MGLU3|60=20250629-21:24:16.020|150=2|151=0|448=MARIA|452=1|1010=63793.49941823791|1011=MARIA|10=238|
8=FIX.4.4|9=318|35=8|1=ACC004|6=81.21111685065614|11=a5538856-3b17-491d-9256-58dad75bad15|14=633|17=008042c5-fcd8-43c8-8f70-0bb26bef66de|31=103.37889822765972|32=0|37=dd83b6c6-9f10-4a8b-a6ba-48d0fd4d6cb9|38=633|39=2|44=59.04333547365257|54=2|55=MGLU3|60=20250629-21:24:16.045|150=2|151=0|448=ANA|452=1|1010=51406.63696646534|1011=ANA|10=224|
8=FIX.4.4|9=322|35=8|1=ACC010|6=398.0923392051192|11=6437aa22-ec91-4c4c-8ed9-410d2a3f31ad|14=300|17=5bd3f7ab-1288-47bf-b030-b8f42205af39|31=448.2265332480483|32=0|37=771f98ca-2c85-4460-8e33-ace2bcb47b01|38=300|39=2|44=347.95814516219|54=2|55=RENT3|60=20250629-21:24:16.045|150=2|151=0|448=CARLOS|452=1|1010=119427.70176153575|1011=CARLOS|10=230|
8=FIX.4.4|9=321|35=8|1=ACC001|6=336.19810154640254|11=066d4852-c8d8-40f9-968e-aec70371ec42|14=882|17=d0d3afb6-6251-4886-b6fd-60b7243ed441|31=320.1860444114518|32=0|37=ad952495-e4b1-4c9d-80ba-95a76ecd3e39|38=882|39=2|44=352.2101586813532|54=1|55=WEGE3|60=20250629-21:24:16.046|150=2|151=0|448=JOSE|452=1|1010=296526.72556392703|1011=JOSE|10=238|
8=FIX.4.4|9=317|35=8|1=ACC003|6=288.73379759642216|11=734f5099-10da-4d53-bfe0-117c9c14e2e8|14=311|17=c15d186a-569b-4c2e-a9a4-6e808415ea75|31=348.8461724134548|32=0|37=5e1060ae-1516-492e-98f0-8182116414eb|38=311|39=2|44=228.6214227793895|54=1|55=MGLU3|60=20250629-21:24:16.046|150=2|151=0|448=ANA|452=1|1010=89796.2110524873|1011=ANA|10=246|
8=FIX.4.4|9=324|35=8|1=ACC005|6=282.42337963713993|11=67d4caaf-dd81-4cd6-96a5-5d8ca1f4261d|14=875|17=4e4f282a-d65f-4329-a7aa-21c74c82eeb6|31=393.0185322420853|32=0|37=a8b4a0bd-b3c2-4d64-9769-b2aacbc5f6ab|38=875|39=2|44=171.82822703219452|54=2|55=ITUB4|60=20250629-21:24:16.046|150=2|151=0|448=MARIA|452=1|1010=247120.45718249743|1011=MARIA|10=172|
8=FIX.4.4|9=323|35=8|1=ACC001|6=212.6537826407893|11=7a1bdaa9-a87a-4796-8625-9bf112ccd6bf|14=224|17=3a1f4e4c-68eb-4581-b706-0507c921f75c|31=156.25952588662895|32=0|37=42538ca2-bfb5-4bc6-9560-443d4a301b6b|38=224|39=2|44=269.0480393949497|54=1|55=LREN3|60=20250629-21:24:16.046|150=2|151=0|448=CARLOS|452=1|1010=47634.4473115368|1011=CARLOS|10=250|
8=FIX.4.4|9=319|35=8|1=ACC004|6=269.9965931998494|11=3dfc60df-9307-4af1-acb6-43345f426271|14=454|17=d56781e9-ef4e-42a2-a280-32cf814fc419|31=96.08089390759848|32=0|37=ccc07e46-af35-49db-a76c-808370d584e7|38=454|39=2|44=443.91229249210033|54=1|55=ABEV3|60=20250629-21:24:16.048|150=2|151=0|448=ANA|452=1|1010=122578.45331273164|1011=ANA|10=089|
8=FIX.4.4|9=322|35=8|1=ACC002|6=469.4622314695654|11=5ed42153-0a8e-41fd-8c25-0c18a7b8b5f7|14=805|17=74ca9b4c-4bff-48ae-a389-cda429876e10|31=448.14333958525754|32=0|37=15040734-2997-42ed-ad37-0c440267e2d8|38=805|39=2|44=490.7811233538733|54=2|55=ABEV3|60=20250629-21:24:16.048|150=2|151=0|448=PAULO|452=1|1010=377917.0963330001|1011=PAULO|10=043|
8=FIX.4.4|9=324|35=8|1=ACC006|6=393.07712441273407|11=5de522ad-2824-4f74-b47d-95f77d066be6|14=739|17=e9d2e869-9858-4c1a-a8b0-dff90f8a5e57|31=431.4256492419646|32=0|37=39a933ec-d219-472f-b92f-49433f975c48|38=739|39=2|44=354.7285995835036|54=1|55=ITUB4|60=20250629-21:24:16.048|150=2|151=0|448=CARLOS|452=1|1010=290483.9949410105|1011=CARLOS|10=031|
8=FIX.4.4|9=323|35=8|1=ACC006|6=209.02674444009793|11=47d17dc3-64ba-42a3-ad57-5a9bad492f5f|14=630|17=989a2a9a-4527-4b04-bd37-221a8a4ba96b|31=273.63054847789715|32=0|37=a838b893-b011-45cd-b413-c6f93ed7ca43|38=630|39=2|44=144.4229404022987|54=2|55=MGLU3|60=20250629-21:24:16.049|150=2|151=0|448=PAULO|452=1|1010=131686.8489972617|1011=PAULO|10=054|
8=FIX.4.4|9=320|35=8|1=ACC008|6=125.66777027506515|11=3c200efa-f278-49d6-af50-0835592099d6|14=879|17=202af30c-97db-4be6-9e3a-88edd0071ff3|31=182.32797382154078|32=0|37=37da34e8-bb3b-4261-b606-35f4ab4519ed|38=879|39=2|44=69.00756672858952|54=2|55=BBAS3|60=20250629-21:24:16.049|150=2|151=0|448=ANA|452=1|1010=110461.97007178227|1011=ANA|10=165|
8=FIX.4.4|9=322|35=8|1=ACC007|6=423.94350069252494|11=b879a9da-b019-486a-a4e5-1dc7874e5bab|14=482|17=3167bd01-f6f4-42ac-83e2-3342130694d4|31=386.8747720077666|32=0|37=b371522a-555c-432b-a4a1-75fb5c2de4c0|38=482|39=2|44=461.01222937728335|54=1|55=WEGE3|60=20250629-21:24:16.049|150=2|151=0|448=PAULO|452=1|1010=204340.767333797|1011=PAULO|10=077|
8=FIX.4.4|9=320|35=8|1=ACC008|6=273.03557402250635|11=4f9d1dc8-3a49-4785-bcda-54119651f6e9|14=215|17=574401d9-0625-45cf-9079-c88a699daa12|31=91.90506472394314|32=0|37=9dd9a6b4-97c8-42b1-a40c-651ff0503b61|38=215|39=2|44=454.1660833210696|54=2|55=RENT3|60=20250629-21:24:16.050|150=2|151=0|448=JOSE|452=1|1010=58702.64841483886|1011=JOSE|10=022|
8=FIX.4.4|9=322|35=8|1=ACC008|6=295.68682673258246|11=b2d19493-17f0-4a1d-a64d-79f7813f403e|14=333|17=8b5fde26-3f3e-454d-90a3-8180365aa81d|31=137.00781397882025|32=0|37=0c35583b-4040-4628-83ce-5d5a1d633ec6|38=333|39=2|44=454.36583948634467|54=1|55=VALE3|60=20250629-21:24:16.050|150=2|151=0|448=JOSE|452=1|1010=98463.71330194996|1011=JOSE|10=133|
8=FIX.4.4|9=318|35=8|1=ACC004|6=247.95118533625484|11=6009c117-835a-4050-a952-e17b1f27bf98|14=842|17=a7f43170-97e1-490e-b871-4e723743dad0|31=137.485504035335|32=0|37=eb44bec1-0bf8-4889-90dc-0b522ae8f92e|38=842|39=2|44=358.4168666371747|54=2|55=PETR4|60=20250629-21:24:16.050|150=2|151=0|448=ANA|452=1|1010=208774.89805312658|1011=ANA|10=152|
8=FIX.4.4|9=324|35=8|1=ACC010|6=393.7185650647375|11=83177d7b-cb0b-4af2-ae18-13ed9c3f350a|14=438|17=860adbb6-5ab4-408f-8b07-e78e5ede3fab|31=310.43787142757014|32=0|37=6fdd5dd5-b51d-41da-afd1-169e78020b4f|38=438|39=2|44=476.99925870190486|54=1|55=WEGE3|60=20250629-21:24:16.050|150=2|151=0|448=MARIA|452=1|1010=172448.73149835502|1011=MARIA|10=171|
8=FIX.4.4|9=324|35=8|1=ACC009|6=281.2112259673196|11=76b0e797-84e1-4d84-ad33-871c35742ff4|14=805|17=7c7e220c-fd0e-4061-8dbd-ecc2fbf74944|31=335.165090571959|32=0|37=fd458a05-7f12-45b0-90f8-b83498dc5bef|38=805|39=2|44=227.25736136268023|54=1|55=BBAS3|60=20250629-21:24:16.050|150=2|151=0|448=CARLOS|452=1|1010=226375.03690369226|1011=CARLOS|10=073|
8=FIX.4.4|9=319|35=8|1=ACC009|6=196.85039307121497|11=ba163c22-0937-48cf-97f5-a1a3dce34a80|14=432|17=8c281f46-b570-4029-abf9-52120d177835|31=61.8331425061991|32=0|37=dea21d3c-afa7-440b-b8e2-c218bc278d15|38=432|39=2|44=331.8676436362308|54=2|55=ABEV3|60=20250629-21:24:16.051|150=2|151=0|448=JOSE|452=1|1010=85039.36980676487|1011=JOSE|10=118|
8=FIX.4.4|9=320|35=8|1=ACC008|6=244.817332462553|11=20ec2b85-7a99-4e47-a69f-6166b6d0055b|14=825|17=86623fb4-fd8f-48c9-a7ef-0c04948b99d3|31=69.84384154714485|32=0|37=441168e7-e771-407d-825b-93553e222659|38=825|39=2|44=419.79082337796115|54=2|55=RENT3|60=20250629-21:24:16.051|150=2|151=0|448=JOSE|452=1|1010=201974.29928160622|1011=JOSE|10=195|
8=FIX.4.4|9=317|35=8|1=ACC002|6=364.8861622032623|11=cd24b17e-c328-43d2-95b5-211b99d6762d|14=726|17=75e0eff7-6042-4901-876f-9b0bc7864d46|31=486.001051409304|32=0|37=24b9fbb2-58f1-4bcd-b01d-b17115e18d7d|38=726|39=2|44=243.77127299722062|54=2|55=MGLU3|60=20250629-21:24:16.051|150=2|151=0|448=ANA|452=1|1010=264907.3537595684|1011=ANA|10=161|
8=FIX.4.4|9=324|35=8|1=ACC009|6=388.03870326103606|11=547835dd-c3b2-4366-8d40-927ccc445424|14=864|17=9a83bd82-7d59-4728-980b-2ba61a761793|31=288.6643199780344|32=0|37=dd5fcff1-c818-4e22-b0f1-0ba104e746ff|38=864|39=2|44=487.41308654403764|54=1|55=RENT3|60=20250629-21:24:16.051|150=2|151=0|448=PAULO|452=1|1010=335265.43961753516|1011=PAULO|10=104|
8=FIX.4.4|9=325|35=8|1=ACC010|6=108.88681433724688|11=41abb2b9-7e7e-48d8-be04-32510f1b299c|14=861|17=79b23447-9f22-472a-a465-8183fa10a0fc|31=105.50030434790435|32=0|37=8f01f686-d016-4b4d-a6e4-d6292f0df2ad|38=861|39=2|44=112.2733243265894|54=1|55=MGLU3|60=20250629-21:24:16.051|150=2|151=0|448=CARLOS|452=1|1010=93751.54714436956|1011=CARLOS|10=022|
8=FIX.4.4|9=322|35=8|1=ACC006|6=20.88568917887992|11=35461ecd-45ee-41fb-8ffe-4b1973008afb|14=586|17=2a537bbd-9997-417c-8ee2-f24b133e217e|31=11.73682713347856|32=0|37=ba8cd98e-237d-44a8-9007-a49a509d6e57|38=586|39=2|44=30.03455122428128|54=2|55=MGLU3|60=20250629-21:24:16.052|150=2|151=0|448=PAULO|452=1|1010=12239.013858823635|1011=PAULO|10=247|
8=FIX.4.4|9=326|35=8|1=ACC006|6=119.91056716376536|11=198095ae-f692-447f-a63f-f3ed0dcc3f98|14=953|17=8bd23c68-3879-48d5-a3fa-7b93ce6d393c|31=33.85980409468448|32=0|37=e20b4640-d679-4b11-b5f8-a608e7e2213c|38=953|39=2|44=205.96133023284625|54=2|55=VALE3|60=20250629-21:24:16.052|150=2|151=0|448=CARLOS|452=1|1010=114274.77050706839|1011=CARLOS|10=176|
8=FIX.4.4|9=322|35=8|1=ACC006|6=408.1810669864583|11=d456bb6d-b624-4bc3-8d04-de7b368eae31|14=489|17=e4dd2002-6f14-41ce-9fbc-7ee41119374b|31=414.6547542987086|32=0|37=a1c6a95f-249c-4305-83d2-f4a226da30cc|38=489|39=2|44=401.707379674208|54=1|55=PETR4|60=20250629-21:24:16.052|150=2|151=0|448=CARLOS|452=1|1010=199600.5417563781|1011=CARLOS|10=088|
8=FIX.4.4|9=320|35=8|1=ACC003|6=319.35512119293446|11=26145abb-9241-4c03-84d4-44b6f037e319|14=829|17=e864d592-2db6-4f71-92a0-473cbbb357b9|31=329.306344242793|32=0|37=9353cb12-dea0-4aca-a9c5-af42c4b9d2df|38=829|39=2|44=309.4038981430759|54=1|55=VALE3|60=20250629-21:24:16.052|150=2|151=0|448=JOSE|452=1|1010=264745.39546894265|1011=JOSE|10=026|
8=FIX.4.4|9=317|35=8|1=ACC005|6=290.4421355759898|11=0e0e6e63-06c9-4bcb-9575-64d63196da1f|14=625|17=453dda4f-60c6-4153-9633-fc1a68196ea7|31=473.8292385767286|32=0|37=1d0f64b9-68a0-4d27-b1f5-b7f1b6bd8978|38=625|39=2|44=107.055032575251|54=2|55=ITUB4|60=20250629-21:24:16.053|150=2|151=0|448=ANA|452=1|1010=181526.33473499364|1011=ANA|10=209|
8=FIX.4.4|9=321|35=8|1=ACC010|6=248.79867305811484|11=abf78b40-ecac-4c9e-8ed2-6380d41a88a1|14=620|17=fcab8f70-98be-4cc7-86ff-973780345029|31=373.5167919818504|32=0|37=0acb5a01-66a9-4588-ae34-ea301c0a70f5|38=620|39=2|44=124.08055413437928|54=2|55=VALE3|60=20250629-21:24:16.053|150=2|151=0|448=JOSE|452=1|1010=154255.1772960312|1011=JOSE|10=168|
8=FIX.4.4|9=322|35=8|1=ACC007|6=384.8434247132535|11=ada41e6b-00c8-49c1-ac8c-28872dbf16fe|14=550|17=fb7f3e18-b2db-4e94-9939-06311a55d6c5|31=335.83269456849325|32=0|37=7e976376-cdba-42cd-8b79-8fa94156800b|38=550|39=2|44=433.85415485801377|54=1|55=BBDC4|60=20250629-21:24:16.053|150=2|151=0|448=JOSE|452=1|1010=211663.88359228944|1011=JOSE|10=194|
8=FIX.4.4|9=318|35=8|1=ACC006|6=20.59265515276205|11=3a4de5cb-8a82-46de-9ff3-8548cdcdf99d|14=901|17=7c4a79f0-e908-47c1-bd79-70230f726400|31=16.62425499423382|32=0|37=c2b47f16-7000-47cc-8112-a06d7b7465e9|38=901|39=2|44=24.56105531129028|54=2|55=RENT3|60=20250629-21:24:16.053|150=2|151=0|448=ANA|452=1|1010=18553.982292638608|1011=ANA|10=236|
8=FIX.4.4|9=323|35=8|1=ACC004|6=285.0487336633954|11=0c06bced-516e-456f-84c8-a4c168ba6665|14=643|17=8071f8c9-cce6-43f2-8ae1-091c9135fdad|31=400.934706385228|32=0|37=5993ae03-8ef0-4106-8bf0-5ca1a668e5cf|38=643|39=2|44=169.1627609415628|54=1|55=VALE3|60=20250629-21:24:16.053|150=2|151=0|448=CARLOS|452=1|1010=183286.33574556324|1011=CARLOS|10=083|
8=FIX.4.4|9=322|35=8|1=ACC002|6=30.06694000181517|11=08a7f386-950a-4d98-9c19-adde5108a84f|14=952|17=b4a25b5a-ca9d-4b4f-b8eb-f57ba1c706e6|31=36.82110594966409|32=0|37=7d3b11d6-3a24-4840-a654-b85b2183e552|38=952|39=2|44=23.31277405396624|54=2|55=ABEV3|60=20250629-21:24:16.053|150=2|151=0|448=MARIA|452=1|1010=28623.726881728042|1011=MARIA|10=120|
8=FIX.4.4|9=320|35=8|1=ACC007|6=231.06732203684058|11=6e77a12c-182e-4559-82ea-3431be98d3cc|14=962|17=ccae408e-9b63-463d-a9db-08347537d914|31=236.71659969524686|32=0|37=b9126a76-25ab-42f8-8f06-26f1eed9cf0f|38=962|39=2|44=225.4180443784343|54=2|55=WEGE3|60=20250629-21:24:16.053|150=2|151=0|448=ANA|452=1|1010=222286.76379944064|1011=ANA|10=186|
8=FIX.4.4|9=323|35=8|1=ACC004|6=234.1545894805717|11=c591e1e9-714c-4d3c-a3e1-8ecd55115b99|14=529|17=414f53c3-edef-457c-84fe-fb7e4cc11eba|31=375.76631075263253|32=0|37=fc39c7cb-b14e-4186-bfa0-c98f545c1c53|38=529|39=2|44=92.54286820851084|54=2|55=MGLU3|60=20250629-21:24:16.053|150=2|151=0|448=PAULO|452=1|1010=123867.77783522243|1011=PAULO|10=102|
8=FIX.4.4|9=321|35=8|1=ACC001|6=65.90864630726765|11=4575187d-8381-48c0-97f9-985b1453c139|14=517|17=4aaf0286-295f-4fe6-87d5-4f1920ee94ff|31=43.81499515163851|32=0|37=cd5d35fe-6d7b-47a9-a7cc-22e60e996dc3|38=517|39=2|44=88.00229746289678|54=2|55=BBAS3|60=20250629-21:24:16.054|150=2|151=0|448=MARIA|452=1|1010=34074.77014085737|1011=MARIA|10=233|
8=FIX.4.4|9=321|35=8|1=ACC005|6=125.16797013723388|11=b8bd1b71-1cca-415c-b274-c59031307c51|14=499|17=ed7a9140-274a-420f-876d-9536a5272408|31=175.9507922958402|32=0|37=79d3c379-dd13-4da4-ae06-685d8c751345|38=499|39=2|44=74.38514797862759|54=2|55=BBDC4|60=20250629-21:24:16.054|150=2|151=0|448=PAULO|452=1|1010=62458.8170984797|1011=PAULO|10=039|
8=FIX.4.4|9=323|35=8|1=ACC005|6=136.7036786078594|11=6871cab0-fc6d-4723-999f-00b1d94c724f|14=169|17=6c800b6f-488e-47f9-8a6c-d0ccc98234be|31=133.6409557446092|32=0|37=1c1255f5-4b9f-4f3b-8c7c-ff27208cc28f|38=169|39=2|44=139.76640147110956|54=1|55=LREN3|60=20250629-21:24:16.054|150=2|151=0|448=MARIA|452=1|1010=23102.921684728237|1011=MARIA|10=039|
8=FIX.4.4|9=322|35=8|1=ACC001|6=342.20869152259604|11=719b414a-4286-4256-bf2b-74e9d392f3bf|14=304|17=3709be57-0ac2-4254-8d3a-afe8a9f8a25a|31=321.6775266721616|32=0|37=a79d24e9-b757-438d-8e63-5376ba18106d|38=304|39=2|44=362.7398563730305|54=1|55=ABEV3|60=20250629-21:24:16.054|150=2|151=0|448=MARIA|452=1|1010=104031.4422228692|1011=MARIA|10=183|
8=FIX.4.4|9=322|35=8|1=ACC002|6=216.8196356410476|11=f3aca075-93e9-4d44-ba29-20e0140ccdc6|14=359|17=b6650ff4-46c2-4096-a995-1e47d251446d|31=105.24516040881161|32=0|37=6b09c002-9323-4a7c-a911-9e74943dc782|38=359|39=2|44=328.3941108732836|54=1|55=WEGE3|60=20250629-21:24:16.054|150=2|151=0|448=PAULO|452=1|1010=77838.24919513609|1011=PAULO|10=103|
8=FIX.4.4|9=324|35=8|1=ACC009|6=207.77886073104008|11=756d24d4-a871-472b-8a91-6f9dffd3dbed|14=520|17=8ab7e1d2-fa89-4d70-a9e7-ffc99422be19|31=307.7608406114128|32=0|37=3f4adf69-0e7d-473f-9ef8-4a95bdd5d16e|38=520|39=2|44=107.79688085066738|54=1|55=WEGE3|60=20250629-21:24:16.055|150=2|151=0|448=MARIA|452=1|1010=108045.00758014084|1011=MARIA|10=109|
8=FIX.4.4|9=319|35=8|1=ACC009|6=274.9593187220684|11=72f0baf8-4eab-4449-923c-5a906673e92a|14=760|17=a0feedec-11e0-49af-9afb-fda05e056ac9|31=308.00345275165625|32=0|37=707c77ca-03ea-4847-a2f0-b49fd4b9998e|38=760|39=2|44=241.9151846924806|54=2|55=WEGE3|60=20250629-21:24:16.055|150=2|151=0|448=JOSE|452=1|1010=208969.082228772|1011=JOSE|10=041|
8=FIX.4.4|9=324|35=8|1=ACC005|6=392.8658907310911|11=7db56cef-1197-45df-9309-c77a212280f0|14=473|17=71dc48b9-637d-45e0-9d3e-323d3cf132fc|31=456.8305418917718|32=0|37=2aa32cf3-e5ef-46b5-b398-b7ffbe4bd7d3|38=473|39=2|44=328.90123957041044|54=1|55=RENT3|60=20250629-21:24:16.055|150=2|151=0|448=CARLOS|452=1|1010=185825.5663158061|1011=CARLOS|10=247|
8=FIX.4.4|9=322|35=8|1=ACC005|6=365.4730369979264|11=b86a31cd-46be-42c6-b3b0-18b72ba43d3c|14=110|17=0214e10d-12d8-4292-b37c-a4cd480cc1bd|31=287.7077518097561|32=0|37=545df29c-7de0-439b-8b20-ffb210496e87|38=110|39=2|44=443.2383221860967|54=2|55=WEGE3|60=20250629-21:24:16.055|150=2|151=0|448=CARLOS|452=1|1010=40202.0340697719|1011=CARLOS|10=221|
8=FIX.4.4|9=322|35=8|1=ACC007|6=393.8439417928621|11=66d59323-07e0-4d1e-8784-4b34308fcfbf|14=273|17=e83d0888-9dbd-4756-b01b-ba4d4e676e9e|31=481.53197255686615|32=0|37=3a1248af-5afe-4e80-b245-7d1e45a56d11|38=273|39=2|44=306.15591102885804|54=2|55=VALE3|60=20250629-21:24:16.055|150=2|151=0|448=JOSE|452=1|1010=107519.39610945135|1011=JOSE|10=111|
8=FIX.4.4|9=326|35=8|1=ACC002|6=266.5627880808645|11=7aa3f8d1-75fb-4835-8638-be40ef4004ac|14=449|17=87d3e7c2-d0d6-4d33-890b-7133a1fd6777|31=108.95112987600226|32=0|37=211e919e-8063-4b07-846f-5afcf81286f1|38=449|39=2|44=424.17444628572673|54=1|55=WEGE3|60=20250629-21:24:16.055|150=2|151=0|448=CARLOS|452=1|1010=119686.69184830815|1011=CARLOS|10=239|
8=FIX.4.4|9=323|35=8|1=ACC005|6=232.91396997874313|11=87736f87-5078-4e4c-b8c3-204fd366cf01|14=982|17=3eafb21f-844a-4634-acff-601358c77955|31=102.67282491464123|32=0|37=f80f733d-8018-4f64-bc12-8a34756a6316|38=982|39=2|44=363.155115042845|54=2|55=RENT3|60=20250629-21:24:16.055|150=2|151=0|448=MARIA|452=1|1010=228721.51851912576|1011=MARIA|10=114|
8=FIX.4.4|9=325|35=8|1=ACC007|6=335.56548874354445|11=301c8b79-708e-4254-832f-ceec65de495f|14=832|17=059621c9-3956-4571-91e6-8c1113752cf5|31=386.3658404815235|32=0|37=e7a2840e-0699-44c3-9bbe-748d92dd3a1d|38=832|39=2|44=284.7651370055654|54=2|55=BBAS3|60=20250629-21:24:16.055|150=2|151=0|448=CARLOS|452=1|1010=279190.48663462896|1011=CARLOS|10=050|
8=FIX.4.4|9=321|35=8|1=ACC006|6=491.94552896833795|11=f3154c7e-c3d8-432d-9334-1eea73f26b21|14=527|17=356b8d62-63a2-471a-877a-2d44add0d8b3|31=497.4625315811182|32=0|37=2ea09711-d189-4b51-b43b-84c9bd1c182f|38=527|39=2|44=486.42852635555766|54=1|55=MGLU3|60=20250629-21:24:16.057|150=2|151=0|448=JOSE|452=1|1010=259255.2937663141|1011=JOSE|10=232|
8=FIX.4.4|9=323|35=8|1=ACC007|6=256.81021905516775|11=8a17aca0-77b0-41b1-a813-def358fe1547|14=433|17=db463fe7-49ff-47fc-9acd-19d81cbd5239|31=369.7686220093718|32=0|37=5ed857a2-5f85-4e56-aa36-8443b6437e92|38=433|39=2|44=143.8518161009637|54=1|55=PETR4|60=20250629-21:24:16.057|150=2|151=0|448=PAULO|452=1|1010=111198.82485088764|1011=PAULO|10=042|
8=FIX.4.4|9=321|35=8|1=ACC006|6=169.46670432750082|11=51cfac05-72a5-48ef-8387-cec65826ded1|14=948|17=fb9fe16a-52fb-4c02-9b31-6ee4b487c9a3|31=283.6773334409087|32=0|37=a87d1c12-3eb4-4900-a5f0-4aafd8c2689c|38=948|39=2|44=55.25607521409295|54=2|55=ITUB4|60=20250629-21:24:16.057|150=2|151=0|448=JOSE|452=1|1010=160654.43570247077|1011=JOSE|10=051|
8=FIX.4.4|9=323|35=8|1=ACC008|6=399.5009584670702|11=7ff916b9-71cd-4890-b3c4-0e09b18fa7d5|14=362|17=e8707a70-4ad1-4ad3-8f67-d008c7f80906|31=376.57755437150087|32=0|37=fee6b5ba-792f-4aca-b74d-6d3b148fe583|38=362|39=2|44=422.42436256263954|54=1|55=ITUB4|60=20250629-21:24:16.057|150=2|151=0|448=MARIA|452=1|1010=144619.3469650794|1011=MARIA|10=095|
8=FIX.4.4|9=325|35=8|1=ACC003|6=151.53491808992075|11=8e4e15cf-ef6b-4c15-afe0-8ab703cfa0d7|14=968|17=c1c58a6d-d8ba-4dcf-9775-aa5bf78a1bb7|31=233.39408279917217|32=0|37=a523fc33-6d04-4361-b6b8-e4f23babb525|38=968|39=2|44=69.67575338066933|54=1|55=ABEV3|60=20250629-21:24:16.057|150=2|151=0|448=CARLOS|452=1|1010=146685.8007110433|1011=CARLOS|10=095|
8=FIX.4.4|9=319|35=8|1=ACC004|6=269.6743597720095|11=ed36ba96-af96-465b-9f93-fa5a6dfdfeb1|14=255|17=6dcc8d71-232a-43ac-97de-1c23782eb768|31=349.97275903811766|32=0|37=0657f1af-6d79-447c-8e86-93210728d2ff|38=255|39=2|44=189.37596050590136|54=1|55=ITUB4|60=20250629-21:24:16.058|150=2|151=0|448=ANA|452=1|1010=68766.96174186243|1011=ANA|10=097|
8=FIX.4.4|9=322|35=8|1=ACC010|6=381.4977315074506|11=daeeb872-e4c7-436a-a627-743765e3a0eb|14=210|17=8aec5acd-4f7f-4e12-be80-1aa042a2879d|31=444.7192434873831|32=0|37=59e01d3c-8b2f-474f-a92d-1c3bdbe1712f|38=210|39=2|44=318.27621952751815|54=2|55=RENT3|60=20250629-21:24:16.058|150=2|151=0|448=MARIA|452=1|1010=80114.52361656463|1011=MARIA|10=155|
8=FIX.4.4|9=319|35=8|1=ACC005|6=146.96799339738345|11=36948ba9-f494-42f6-b46a-84f9a87969fe|14=665|17=64082cc8-365a-4332-b641-ad6ff514e7c3|31=84.93025024316654|32=0|37=9e2cd333-01c8-4e30-af1b-5c3216cbc580|38=665|39=2|44=209.00573655160036|54=2|55=ITUB4|60=20250629-21:24:16.058|150=2|151=0|448=ANA|452=1|1010=97733.71560925999|1011=ANA|10=025|
8=FIX.4.4|9=327|35=8|1=ACC004|6=229.03659108198897|11=dd476877-1ad1-4347-85b4-0fc85a8f15c7|14=141|17=c1535241-1312-4e17-94b4-3ba74e529d2e|31=336.83178339084697|32=0|37=db49512b-1633-4e68-aece-1f12cbea81f6|38=141|39=2|44=121.24139877313098|54=1|55=BBDC4|60=20250629-21:24:16.058|150=2|151=0|448=CARLOS|452=1|1010=32294.159342560444|1011=CARLOS|10=010|
8=FIX.4.4|9=323|35=8|1=ACC007|6=159.46316717974463|11=160310aa-a174-44bb-ac84-edac89d5d17c|14=373|17=562c368f-b211-4b1d-a5b9-a7c707aefd11|31=84.56366631276373|32=0|37=6f035f76-fb1a-42b7-bc62-f0130db2b7e7|38=373|39=2|44=234.36266804672556|54=2|55=RENT3|60=20250629-21:24:16.059|150=2|151=0|448=PAULO|452=1|1010=59479.76135804475|1011=PAULO|10=190|
8=FIX.4.4|9=321|35=8|1=ACC010|6=439.3567004832803|11=8fc91f90-cab1-4373-a54d-3966ba747b9b|14=126|17=1aec3d87-b578-4ab1-a7d6-5db29c98b590|31=453.17852893662825|32=0|37=b4766a1d-38c5-4c17-a2c8-2b9eaaca702f|38=126|39=2|44=425.53487202993233|54=2|55=LREN3|60=20250629-21:24:16.059|150=2|151=0|448=JOSE|452=1|1010=55358.94426089332|1011=JOSE|10=246|
8=FIX.4.4|9=326|35=8|1=ACC001|6=102.25744871247724|11=11a6fb12-8b56-455c-8d07-727cab2c8296|14=118|17=6a13f3aa-e18d-4407-955a-99e41ac9c841|31=76.52153332007211|32=0|37=3a0e14aa-10af-47d0-9862-db3522fefca0|38=118|39=2|44=127.99336410488239|54=1|55=WEGE3|60=20250629-21:24:16.059|150=2|151=0|448=CARLOS|452=1|1010=12066.378948072315|1011=CARLOS|10=077|
8=FIX.4.4|9=323|35=8|1=ACC005|6=241.74209540643977|11=af12b1e5-fd96-4848-b6ea-dc42fe6dd601|14=767|17=5b721ad0-0104-45db-87d0-dcc38c033107|31=174.92470056473837|32=0|37=93783771-b42b-444a-b6b3-548b3dfa7f8a|38=767|39=2|44=308.5594902481412|54=2|55=VALE3|60=20250629-21:24:16.059|150=2|151=0|448=MARIA|452=1|1010=185416.1871767393|1011=MARIA|10=204|
8=FIX.4.4|9=319|35=8|1=ACC007|6=259.4037772606699|11=e79d6951-3f45-4be2-ad33-20df885399f8|14=898|17=c129bc05-d43a-4aec-82c8-04b586a294bb|31=306.48028709636384|32=0|37=3f533451-6482-4d2a-8ae3-08131481fd70|38=898|39=2|44=212.32726742497604|54=1|55=VALE3|60=20250629-21:24:16.059|150=2|151=0|448=ANA|452=1|1010=232944.5919800816|1011=ANA|10=168|
8=FIX.4.4|9=321|35=8|1=ACC001|6=105.33108493021524|11=47566f0f-694a-4bc9-bd11-fc5679c98f12|14=745|17=8ba7bc19-295e-4217-90d8-e728ede0431e|31=162.16392079364596|32=0|37=bffeac85-f2cc-4a92-bdae-699384ceb5dc|38=745|39=2|44=48.49824906678452|54=1|55=ABEV3|60=20250629-21:24:16.059|150=2|151=0|448=JOSE|452=1|1010=78471.65827301035|1011=JOSE|10=101|
8=FIX.4.4|9=324|35=8|1=ACC001|6=172.4979211117472|11=cb39420f-9b94-479c-b963-676093d6c4e7|14=692|17=312799fb-a795-46f0-9381-defddaeb75de|31=196.58508093315362|32=0|37=0e398545-5ffd-40ee-98de-f15e4ebc5a41|38=692|39=2|44=148.41076129034073|54=1|55=LREN3|60=20250629-21:24:16.059|150=2|151=0|448=MARIA|452=1|1010=119368.56140932905|1011=MARIA|10=103|
8=FIX.4.4|9=319|35=8|1=ACC005|6=384.79225395923845|11=7fba6c97-b2d0-4a52-b1b3-e6f3a12edc37|14=317|17=00c91892-97e5-46a7-b152-34501a7f2686|31=482.8505331638574|32=0|37=c0f49710-5bb2-4d2a-90c7-9a115f17cc68|38=317|39=2|44=286.7339747546195|54=1|55=ITUB4|60=20250629-21:24:16.059|150=2|151=0|448=ANA|452=1|1010=121979.14450507858|1011=ANA|10=250|
8=FIX.4.4|9=321|35=8|1=ACC010|6=195.23924703954884|11=a6f5e310-3a43-4524-a79f-3eba58a0cdc3|14=994|17=43c3a419-f9e1-48f8-ad31-86edebd3fc5f|31=215.41142175150927|32=0|37=09d15823-5d60-4969-9c00-5297ed445a0b|38=994|39=2|44=175.06707232758845|54=1|55=VALE3|60=20250629-21:24:16.060|150=2|151=0|448=ANA|452=1|1010=194067.81155731154|1011=ANA|10=205|
8=FIX.4.4|9=320|35=8|1=ACC003|6=217.69274946836543|11=01d60a17-6c5b-47df-beaa-faf6431fc2a0|14=425|17=c396566c-ad67-42a3-b7b9-fd4a4f7f8721|31=333.6655741911352|32=0|37=61780598-8b87-40aa-a9f5-ba69450a5f85|38=425|39=2|44=101.71992474559566|54=1|55=LREN3|60=20250629-21:24:16.060|150=2|151=0|448=JOSE|452=1|1010=92519.4185240553|1011=JOSE|10=100|
8=FIX.4.4|9=325|35=8|1=ACC002|6=272.96926910221333|11=9994305c-8ced-4a7e-a2d4-64da812c1243|14=740|17=10c1f18f-c0e9-4b0f-9a47-d70cc7175eae|31=299.29607070122063|32=0|37=d044719f-de8a-4163-9b67-8a830d1ff7ae|38=740|39=2|44=246.642467503206|54=2|55=BBAS3|60=20250629-21:24:16.060|150=2|151=0|448=CARLOS|452=1|1010=201997.25913563787|1011=CARLOS|10=141|
8=FIX.4.4|9=323|35=8|1=ACC008|6=198.12100445974298|11=2e591c73-fefe-4d4f-9e71-2d7acfd60141|14=403|17=beb13150-eafb-439d-8df3-b4c96369526e|31=369.17911482661054|32=0|37=0c62597f-e57d-4adc-ab8c-36e75f4e5085|38=403|39=2|44=27.06289409287541|54=1|55=ITUB4|60=20250629-21:24:16.060|150=2|151=0|448=PAULO|452=1|1010=79842.76479727642|1011=PAULO|10=234|
8=FIX.4.4|9=324|35=8|1=ACC002|6=307.22738413956426|11=5001ac6e-a2ae-4171-808d-ef759ae72676|14=946|17=cb8c0a4b-1f33-49ab-b3fe-83df8347bf7c|31=159.48231577636815|32=0|37=85be186e-df5d-4850-a4de-656959c1689b|38=946|39=2|44=454.97245250276035|54=2|55=WEGE3|60=20250629-21:24:16.060|150=2|151=0|448=PAULO|452=1|1010=290637.1053960278|1011=PAULO|10=175|
8=FIX.4.4|9=320|35=8|1=ACC003|6=354.9322957866011|11=820faccf-2839-4d1e-93cd-67fba2e54c97|14=263|17=5374813e-7ea2-49c1-a5b5-4a5dd6010119|31=216.64706108343097|32=0|37=99fae572-1ca4-4ca1-b590-500a4e3ba84a|38=263|39=2|44=493.21753048977126|54=2|55=RENT3|60=20250629-21:24:16.060|150=2|151=0|448=JOSE|452=1|1010=93347.1937918761|1011=JOSE|10=033|
8=FIX.4.4|9=325|35=8|1=ACC010|6=268.02935525159376|11=d2ddbc95-65ed-4d19-9684-13e78b3ece49|14=532|17=36426be7-8adb-4be0-87c3-9fccd3bcd063|31=351.09381167564163|32=0|37=17569071-67c9-41b3-8642-bffc9c83badc|38=532|39=2|44=184.96489882754585|54=1|55=MGLU3|60=20250629-21:24:16.060|150=2|151=0|448=PAULO|452=1|1010=142591.61699384789|1011=PAULO|10=063|
8=FIX.4.4|9=321|35=8|1=ACC004|6=183.8696234932809|11=a47bc0d4-a558-425a-aeec-a6e313ca2569|14=122|17=6444a3f6-388c-404b-bae5-d5255bcc4ceb|31=107.97309068482475|32=0|37=28479091-c0b9-486b-9594-f26e662aac5f|38=122|39=2|44=259.76615630173706|54=2|55=MGLU3|60=20250629-21:24:16.060|150=2|151=0|448=JOSE|452=1|1010=22432.09406618027|1011=JOSE|10=129|
8=FIX.4.4|9=321|35=8|1=ACC002|6=194.62124421698002|11=b0a68b9f-f45e-4ab2-bfd3-6435a45298da|14=228|17=a44e9935-6640-4463-b9f2-ed84cb0a1481|31=78.63622319055607|32=0|37=3bbe029c-42b3-4e64-bd08-14d81ef500b1|38=228|39=2|44=310.606265243404|54=1|55=MGLU3|60=20250629-21:24:16.061|150=2|151=0|448=MARIA|452=1|1010=44373.64368147145|1011=MARIA|10=002|
8=FIX.4.4|9=322|35=8|1=ACC002|6=332.9211566462501|11=8add1939-2391-4aa0-a4db-799bdd72f9c0|14=968|17=36873f6a-cc6d-48c1-8b04-d210006ebee5|31=247.24106544473608|32=0|37=cef63d0c-5644-4050-a37a-e73c03a4c3d6|38=968|39=2|44=418.6012478477641|54=1|55=BBAS3|60=20250629-21:24:16.061|150=2|151=0|448=PAULO|452=1|1010=322267.6796335701|1011=PAULO|10=197|
8=FIX.4.4|9=321|35=8|1=ACC003|6=213.95743149477022|11=305ad21e-b1e6-4b39-afba-601c9fa7fc7c|14=658|17=d70a7f88-9329-4611-821d-a8c90d7c28d6|31=345.684883706397|32=0|37=1946f914-7437-4067-b5c5-b2be8747f3bd|38=658|39=2|44=82.22997928314342|54=2|55=BBAS3|60=20250629-21:24:16.061|150=2|151=0|448=PAULO|452=1|1010=140783.9899235588|1011=PAULO|10=091|
8=FIX.4.4|9=323|35=8|1=ACC010|6=249.0022964700081|11=a4ee1e71-4a2d-4eb3-99e5-ba63ea9ee5d1|14=172|17=6836be07-84b4-48ce-80b8-3563e20144c6|31=391.35954196052677|32=0|37=b0c8503f-7728-4b0b-a3af-06f5adc60fed|38=172|39=2|44=106.64505097948947|54=1|55=MGLU3|60=20250629-21:24:16.061|150=2|151=0|448=MARIA|452=1|1010=42828.39499284139|1011=MARIA|10=099|
8=FIX.4.4|9=321|35=8|1=ACC008|6=331.12045541124036|11=c6bd2633-48ca-4fdc-979b-a6035ded2e12|14=132|17=5342c1dc-bb72-4382-9436-2b205c11596a|31=263.834069823396|32=0|37=f1c4acdd-0d5c-40f8-8545-c68c298694d0|38=132|39=2|44=398.4068409990847|54=2|55=WEGE3|60=20250629-21:24:16.061|150=2|151=0|448=MARIA|452=1|1010=43707.90011428373|1011=MARIA|10=220|
8=FIX.4.4|9=323|35=8|1=ACC010|6=386.3427435903602|11=32acc62a-6e11-48c5-98b8-476421f9a6c2|14=274|17=f23e35f6-eecd-4ade-a022-07320e201f05|31=356.7570039122276|32=0|37=ca4a64ad-c271-40c2-8550-ccada96486be|38=274|39=2|44=415.9284832684928|54=2|55=BBDC4|60=20250629-21:24:16.061|150=2|151=0|448=CARLOS|452=1|1010=105857.9117437587|1011=CARLOS|10=010|
8=FIX.4.4|9=322|35=8|1=ACC003|6=235.96307990141094|11=4e6de088-cbfa-4488-bde6-077a7beba31f|14=896|17=be99c922-dd70-4c4d-9318-fece008c0d2f|31=176.25180684674118|32=0|37=3d083845-8a65-4f4d-a7a7-99326a7441d8|38=896|39=2|44=295.67435295608067|54=2|55=PETR4|60=20250629-21:24:16.062|150=2|151=0|448=JOSE|452=1|1010=211422.9195916642|1011=JOSE|10=047|
8=FIX.4.4|9=324|35=8|1=ACC002|6=226.34432968047764|11=f4f2aeeb-a095-45da-9eb6-15dd3994e8fa|14=888|17=8d26055d-abdd-425b-9111-d3c13018f534|31=252.3406249112642|32=0|37=c2f1054c-e82e-44c7-a40a-f12ffcff0c40|38=888|39=2|44=200.34803444969108|54=2|55=ITUB4|60=20250629-21:24:16.062|150=2|151=0|448=PAULO|452=1|1010=200993.76475626414|1011=PAULO|10=013|
8=FIX.4.4|9=326|35=8|1=ACC002|6=198.27195161546825|11=d6e88a81-d036-4d06-aa82-73d4a3cdd624|14=490|17=215686e6-42f5-4975-8815-74a19388e4eb|31=182.48067084208083|32=0|37=a0d273c0-8b40-4e40-909b-f7598a147717|38=490|39=2|44=214.06323238885565|54=1|55=MGLU3|60=20250629-21:24:16.062|150=2|151=0|448=CARLOS|452=1|1010=97153.25629157944|1011=CARLOS|10=255|
8=FIX.4.4|9=319|35=8|1=ACC006|6=269.09604988957585|11=35864dc7-0f3a-4d07-925c-b3862845cc2d|14=289|17=d7d215b2-7014-452c-bcbd-34739c9ab7a2|31=169.36252142020012|32=0|37=e90bcbe7-95a8-4c8c-a2d8-a52950022e54|38=289|39=2|44=368.8295783589516|54=2|55=VALE3|60=20250629-21:24:16.062|150=2|151=0|448=ANA|452=1|1010=77768.75841808743|1011=ANA|10=102|
8=FIX.4.4|9=325|35=8|1=ACC008|6=421.79624137632425|11=111db77f-8c39-4db3-bd07-62270d8f674e|14=685|17=eebed3b9-6e27-4a61-ba75-234dc558abf6|31=390.65864572531956|32=0|37=82ee31b7-e23c-4683-8ad2-3ac2d88952ad|38=685|39=2|44=452.9338370273289|54=1|55=VALE3|60=20250629-21:24:16.062|150=2|151=0|448=CARLOS|452=1|1010=288930.4253427821|1011=CARLOS|10=254|
8=FIX.4.4|9=319|35=8|1=ACC005|6=261.3607013405743|11=d3fb0e8f-2e08-4ae4-b86c-478d4426f709|14=948|17=ea04ff6d-d026-4709-85a9-1d0a115d9085|31=77.00290693661259|32=0|37=7a5c5a20-8b78-4cba-ae66-4efe5711d0d4|38=948|39=2|44=445.71849574453597|54=1|55=LREN3|60=20250629-21:24:16.062|150=2|151=0|448=ANA|452=1|1010=247769.94487086442|1011=ANA|10=200|
8=FIX.4.4|9=324|35=8|1=ACC001|6=296.26114911927766|11=9fd2156a-c44e-420d-ab18-357a33479a17|14=919|17=58cc5083-0e98-43d5-bcfa-63a06c0c1f8e|31=182.13821288642626|32=0|37=95242c3d-0671-47b1-9fce-91a64bd38ab5|38=919|39=2|44=410.38408535212903|54=2|55=WEGE3|60=20250629-21:24:16.062|150=2|151=0|448=PAULO|452=1|1010=272263.9960406162|1011=PAULO|10=183|
8=FIX.4.4|9=321|35=8|1=ACC010|6=172.60292092388204|11=ec332816-f9b1-447e-9d16-d13ed5b259bf|14=806|17=92e8deff-a473-4020-b578-054ac171d624|31=149.56758655938432|32=0|37=42b9afa4-bf34-44f8-a6c4-e1ec9bbba263|38=806|39=2|44=195.63825528837975|54=1|55=BBDC4|60=20250629-21:24:16.062|150=2|151=0|448=ANA|452=1|1010=139117.95426464893|1011=ANA|10=090|
8=FIX.4.4|9=326|35=8|1=ACC009|6=250.66748606482008|11=556f9654-6a96-438a-a6ea-d21f94126480|14=854|17=f92c4d0b-192b-4b0e-8ac1-359520bfbf0e|31=203.64164193537763|32=0|37=b19ccee0-06dc-4f94-8ed1-995b07147968|38=854|39=2|44=297.6933301942625|54=2|55=VALE3|60=20250629-21:24:16.063|150=2|151=0|448=CARLOS|452=1|1010=214070.03309935634|1011=CARLOS|10=047|
8=FIX.4.4|9=325|35=8|1=ACC005|6=338.18925420304583|11=31a3a2c0-9963-45dd-bc30-85726125ad33|14=970|17=4761a45b-6f12-4c78-9002-1ab65e101d7f|31=193.86421095180776|32=0|37=a84c3a9c-b7d6-412a-ba3c-68da83404594|38=970|39=2|44=482.51429745428385|54=2|55=WEGE3|60=20250629-21:24:16.063|150=2|151=0|448=PAULO|452=1|1010=328043.57657695445|1011=PAULO|10=051|
8=FIX.4.4|9=325|35=8|1=ACC001|6=204.89343513579468|11=849f7a91-8f5b-4c0f-ae24-920819fa2b35|14=483|17=625b30c0-e340-47b1-9732-98d970e230ab|31=14.89777591434922|32=0|37=c50cefc6-765a-49e7-b9d3-636160bc2562|38=483|39=2|44=394.88909435724014|54=1|55=BBDC4|60=20250629-21:24:16.063|150=2|151=0|448=CARLOS|452=1|1010=98963.52917058882|1011=CARLOS|10=116|
8=FIX.4.4|9=323|35=8|1=ACC002|6=403.55164083566603|11=2e137e63-e213-444a-b5d3-ed8f606859f8|14=376|17=6136652e-3a0b-4055-96bc-02b9809e8eb5|31=410.3018552130215|32=0|37=17136770-bfc5-4a3a-9ed7-091d80ab92be|38=376|39=2|44=396.8014264583105|54=2|55=BBDC4|60=20250629-21:24:16.063|150=2|151=0|448=MARIA|452=1|1010=151735.41695421044|1011=MARIA|10=145|
8=FIX.4.4|9=319|35=8|1=ACC008|6=253.6754207305579|11=918d4aae-3c52-4e3e-8502-4e6531a0e647|14=814|17=54c0410e-4576-4b97-91ef-fe423464cbc7|31=177.28183048214166|32=0|37=8d375706-d339-425b-87ec-0b9d31221013|38=814|39=2|44=330.0690109789742|54=1|55=BBDC4|60=20250629-21:24:16.063|150=2|151=0|448=ANA|452=1|1010=206491.79247467412|1011=ANA|10=199|
8=FIX.4.4|9=322|35=8|1=ACC007|6=200.890154106324|11=8fe90534-3926-4440-bea3-b47caeab0651|14=236|17=dbaeab67-4a57-48a6-a4de-175837eeae45|31=318.72530161094215|32=0|37=58727c06-03ba-4bd9-bcc5-d7e99a9f34ad|38=236|39=2|44=83.05500660170581|54=1|55=LREN3|60=20250629-21:24:16.063|150=2|151=0|448=PAULO|452=1|1010=47410.076369092465|1011=PAULO|10=088|
8=FIX.4.4|9=324|35=8|1=ACC005|6=73.27664707228598|11=eb5c358f-f3bd-4e19-893d-8008a9bff9da|14=161|17=087cd9a6-0fef-4c2f-bdc0-67a69eebd90c|31=38.44501586538675|32=0|37=2bb8b13b-ddb1-4aa8-8087-e7ad13e14d62|38=161|39=2|44=108.1082782791852|54=2|55=ABEV3|60=20250629-21:24:16.063|150=2|151=0|448=CARLOS|452=1|1010=11797.540178638043|1011=CARLOS|10=053|
8=FIX.4.4|9=322|35=8|1=ACC001|6=360.00261663404757|11=35faf46a-7fe5-49ff-92e5-146c2a3cf50e|14=421|17=5f1225ae-70b8-49d1-a801-90dbc0cdb362|31=333.9982534660515|32=0|37=dc54956f-f8b6-4527-a45d-acb07876e266|38=421|39=2|44=386.00697980204365|54=1|55=MGLU3|60=20250629-21:24:16.064|150=2|151=0|448=JOSE|452=1|1010=151561.10160293404|1011=JOSE|10=160|
8=FIX.4.4|9=324|35=8|1=ACC010|6=376.5479447707172|11=b98eee5a-eecd-453b-931d-d75c628db41e|14=965|17=63cd3552-85ec-44bd-89c5-2e7bb1ac56a0|31=346.3148318876674|32=0|37=6a46c7e8-351d-4211-bdea-814b17fd1f5c|38=965|39=2|44=406.78105765376694|54=1|55=VALE3|60=20250629-21:24:16.064|150=2|151=0|448=CARLOS|452=1|1010=363368.7667037421|1011=CARLOS|10=146|
8=FIX.4.4|9=323|35=8|1=ACC003|6=223.87764689402206|11=21850fe3-c85c-424c-b981-9b53fbe5f3b5|14=339|17=f75a422d-805a-47c5-892b-839fa19ee16d|31=178.46332198448297|32=0|37=9d685964-c3e3-4e0a-b4e0-defd03e750a8|38=339|39=2|44=269.2919718035611|54=2|55=ABEV3|60=20250629-21:24:16.064|150=2|151=0|448=PAULO|452=1|1010=75894.52229707348|1011=PAULO|10=035|
8=FIX.4.4|9=322|35=8|1=ACC010|6=383.2637025175693|11=66475eff-5dad-44b5-82ca-9b465ca7735c|14=849|17=3ee9d4a7-c07e-494e-af80-34ec4b1c25b3|31=475.4797184578045|32=0|37=6812d22b-6d05-4b1f-9841-3b90ce0738cc|38=849|39=2|44=291.0476865773341|54=2|55=MGLU3|60=20250629-21:24:16.064|150=2|151=0|448=MARIA|452=1|1010=325390.88343741634|1011=MARIA|10=245|
8=FIX.4.4|9=322|35=8|1=ACC010|6=444.78704422478063|11=05ff02c0-a3c8-4dcf-aab7-d0437a1bf662|14=793|17=ea5bca3c-017f-4e81-ac71-bd807fa7f5bb|31=401.0236237961615|32=0|37=b11fc9a8-6828-4d88-bec3-3f8451f8adc2|38=793|39=2|44=488.55046465339984|54=2|55=ITUB4|60=20250629-21:24:16.064|150=2|151=0|448=JOSE|452=1|1010=352716.12607025105|1011=JOSE|10=042|
8=FIX.4.4|9=324|35=8|1=ACC003|6=51.42562995499046|11=1c806a13-6f04-4f8c-852b-d9568fb1c92c|14=576|17=21b689ac-6a1c-4a88-9a93-ab17d1be4a28|31=27.03584131256209|32=0|37=b360ea0e-8426-4888-9ab3-76eecf19ccb9|38=576|39=2|44=75.81541859741881|54=2|55=VALE3|60=20250629-21:24:16.064|150=2|151=0|448=CARLOS|452=1|1010=29621.162854074508|1011=CARLOS|10=153|
8=FIX.4.4|9=326|35=8|1=ACC001|6=166.02481338234094|11=0d08c147-561a-4ac3-a2f0-82c22a30cd19|14=379|17=24f93c59-bc36-4f26-a200-b6db0b50b8ef|31=191.13898331298404|32=0|37=be233fb8-4c02-44a5-a987-f9680f9a13d5|38=379|39=2|44=140.91064345169787|54=2|55=PETR4|60=20250629-21:24:16.064|150=2|151=0|448=CARLOS|452=1|1010=62923.40427190722|1011=CARLOS|10=108|
8=FIX.4.4|9=319|35=8|1=ACC006|6=162.11888577327667|11=7f7e75e7-15bf-4c3b-b562-82c171435a37|14=843|17=f719fa21-739f-4cc5-a088-1b04baa60e46|31=305.7413812591319|32=0|37=9fb2a38a-89a1-4bb3-bc83-8780a5f78773|38=843|39=2|44=18.49639028742144|54=2|55=VALE3|60=20250629-21:24:16.064|150=2|151=0|448=ANA|452=1|1010=136666.22070687223|1011=ANA|10=029|
8=FIX.4.4|9=320|35=8|1=ACC001|6=234.4766752521619|11=a527f165-3ddc-4775-a51e-f5d72efcd623|14=543|17=979cb42f-8b4b-4390-9aa0-68496463f068|31=64.65818037804914|32=0|37=f279fc5b-7acf-4285-aa78-7ad057fd7174|38=543|39=2|44=404.2951701262746|54=1|55=BBAS3|60=20250629-21:24:16.065|150=2|151=0|448=JOSE|452=1|1010=127320.83466192392|1011=JOSE|10=204|
8=FIX.4.4|9=320|35=8|1=ACC008|6=416.6194268166191|11=8ef1f147-9eb2-4638-83cf-459480e3376f|14=798|17=58de5fa1-4da2-4bab-90e4-c30eb342c5f4|31=429.35452075884564|32=0|37=5985649e-a3ad-414b-9a28-4591acd45e92|38=798|39=2|44=403.88433287439256|54=1|55=ABEV3|60=20250629-21:24:16.065|150=2|151=0|448=ANA|452=1|1010=332462.30259966204|1011=ANA|10=149|
8=FIX.4.4|9=320|35=8|1=ACC001|6=313.09592930236386|11=8f6523e5-065f-4fa1-abe2-8bf542718c00|14=826|17=049b7608-c666-4cfa-801c-4dd92e75d96f|31=281.5452896780847|32=0|37=fdc43479-9d4c-4ea9-82b8-40858c0ce8cd|38=826|39=2|44=344.64656892664306|54=2|55=BBAS3|60=20250629-21:24:16.065|150=2|151=0|448=ANA|452=1|1010=258617.23760375255|1011=ANA|10=194|
8=FIX.4.4|9=320|35=8|1=ACC008|6=119.17993195641043|11=b09d689d-4e4c-4243-af56-61549748a0cb|14=909|17=d194cd58-cd40-48b7-ab3e-5e3f9fe32f7e|31=58.36934892960344|32=0|37=d16a6679-39c1-4e3d-9b99-ce27a19432b0|38=909|39=2|44=179.99051498321742|54=1|55=ITUB4|60=20250629-21:24:16.065|150=2|151=0|448=ANA|452=1|1010=108334.55814837708|1011=ANA|10=232|
8=FIX.4.4|9=322|35=8|1=ACC009|6=464.0258819779268|11=80a6fe28-898d-43b0-9e34-417e42d17e2a|14=256|17=6ff18f66-1bbc-4671-8ecc-54ac1ef1dc6a|31=448.02698491183855|32=0|37=535cc776-976e-4bbd-b297-43595a2ecfaf|38=256|39=2|44=480.024779044015|54=2|55=BBDC4|60=20250629-21:24:16.065|150=2|151=0|448=PAULO|452=1|1010=118790.62578634926|1011=PAULO|10=115|
8=FIX.4.4|9=323|35=8|1=ACC002|6=215.01280849114696|11=2ad7e799-7026-4763-8006-67d4e23abb8a|14=672|17=34ac362c-9cb6-4ce8-aee4-fa740713074e|31=317.75218967064933|32=0|37=dc78c44a-1893-4a18-8fbd-dfc6b01a44be|38=672|39=2|44=112.27342731164458|54=1|55=BBAS3|60=20250629-21:24:16.065|150=2|151=0|448=JOSE|452=1|1010=144488.60730605075|1011=JOSE|10=209|
8=FIX.4.4|9=326|35=8|1=ACC010|6=247.73972337363637|11=6b37ecb5-efca-4e33-bb79-7b8b2f83f268|14=548|17=6bb915d2-15b4-45c0-90b3-23eec4b1eed1|31=206.88769989873836|32=0|37=8177c26a-dcb9-4e01-b587-eeed97859302|38=548|39=2|44=288.5917468485344|54=1|55=ABEV3|60=20250629-21:24:16.065|150=2|151=0|448=CARLOS|452=1|1010=135761.36840875272|1011=CARLOS|10=133|
8=FIX.4.4|9=318|35=8|1=ACC004|6=304.0812340061324|11=6b83216c-2b9d-4f84-930c-827fd7a28b8c|14=819|17=d793cd4f-8dde-4670-b674-36eef167c1b6|31=322.0094800704315|32=0|37=e86a12fd-c088-486a-83d1-b4f436e8a5cb|38=819|39=2|44=286.1529879418333|54=1|55=LREN3|60=20250629-21:24:16.066|150=2|151=0|448=ANA|452=1|1010=249042.53065102242|1011=ANA|10=144|
8=FIX.4.4|9=325|35=8|1=ACC002|6=143.5274994912096|11=5847e50b-a195-4ab3-b8b0-e6e29eed2d50|14=961|17=d2a56c0a-e76e-4b2e-8b06-94e407d6d942|31=152.61879941561958|32=0|37=356803b4-5715-4977-97c7-999c7e6567e2|38=961|39=2|44=134.43619956679964|54=2|55=VALE3|60=20250629-21:24:16.066|150=2|151=0|448=CARLOS|452=1|1010=137929.9270110524|1011=CARLOS|10=175|
8=FIX.4.4|9=322|35=8|1=ACC002|6=302.0845507732894|11=2d082c1e-b05a-4f10-96ae-53a403b12b4f|14=806|17=e615e6f3-bede-4144-bbfb-44739f8eecf0|31=122.9558881034611|32=0|37=bb9c4700-0150-4257-abfc-1a4c34e2a713|38=806|39=2|44=481.2132134431177|54=1|55=PETR4|60=20250629-21:24:16.066|150=2|151=0|448=PAULO|452=1|1010=243480.14792327123|1011=PAULO|10=011|
8=FIX.4.4|9=324|35=8|1=ACC008|6=190.20151463443443|11=68958e6d-5008-4d14-b3a4-d361564c916b|14=316|17=3f7ba77c-c397-4a6e-a554-276ed45ad7d5|31=142.17234853765467|32=0|37=60705770-95a3-457b-aaf4-1bac434c6f7d|38=316|39=2|44=238.23068073121416|54=2|55=ITUB4|60=20250629-21:24:16.066|150=2|151=0|448=PAULO|452=1|1010=60103.67862448128|1011=PAULO|10=098|
8=FIX.4.4|9=325|35=8|1=ACC004|6=226.99236791839414|11=443796e6-dca6-4ce4-9aa2-a67a80332a02|14=940|17=e86ac53e-3102-459d-a1e8-12405e5610d6|31=315.19765604829524|32=0|37=1526e40b-a125-40c9-a4c8-808e11b16441|38=940|39=2|44=138.78707978849303|54=2|55=ABEV3|60=20250629-21:24:16.066|150=2|151=0|448=PAULO|452=1|1010=213372.82584329048|1011=PAULO|10=205|
8=FIX.4.4|9=318|35=8|1=ACC003|6=302.82892579745464|11=d02897dc-29a0-4dbb-8886-a4b055cd3bd5|14=828|17=39250e88-17f8-41f4-ae23-d70cce645d6b|31=417.760918979331|32=0|37=1a58ac9f-c80f-4058-8f5f-82a893596df5|38=828|39=2|44=187.8969326155783|54=1|55=MGLU3|60=20250629-21:24:16.066|150=2|151=0|448=ANA|452=1|1010=250742.35056029246|1011=ANA|10=140|
8=FIX.4.4|9=320|35=8|1=ACC001|6=120.71550623996329|11=78f32eed-497c-4ef5-b0bc-6b74794d98dc|14=194|17=428ad080-4ccd-42f9-9897-f040ca560bf0|31=216.68812853553865|32=0|37=85b93335-33fd-4319-a41f-b95e6ab3d437|38=194|39=2|44=24.74288394438793|54=2|55=PETR4|60=20250629-21:24:16.066|150=2|151=0|448=ANA|452=1|1010=23418.808210552877|1011=ANA|10=219|
8=FIX.4.4|9=319|35=8|1=ACC005|6=348.77157156307294|11=702e98fc-3688-4c62-9388-3566f541dba6|14=705|17=b77abd03-6b82-4ac1-af74-9b9c8a423ef3|31=316.6388500056654|32=0|37=19bc14e8-bc96-4373-afbe-234ccb19c335|38=705|39=2|44=380.90429312048053|54=2|55=VALE3|60=20250629-21:24:16.066|150=2|151=0|448=ANA|452=1|1010=245883.9579519664|1011=ANA|10=137|
8=FIX.4.4|9=318|35=8|1=ACC007|6=165.45372100351605|11=ed3916b6-220f-4781-bf63-668035a36aa8|14=525|17=e15b9ed9-47ac-4d02-a5bc-644e2122dcac|31=25.738885874259|32=0|37=cbd4bd27-7132-4547-a09b-c9ed1650b077|38=525|39=2|44=305.1685561327731|54=2|55=BBDC4|60=20250629-21:24:16.066|150=2|151=0|448=JOSE|452=1|1010=86863.20352684593|1011=JOSE|10=097|
8=FIX.4.4|9=324|35=8|1=ACC002|6=234.37772211658722|11=df98a888-7793-4f27-ade2-d15dc06b6192|14=487|17=5baf88a4-5b9c-4052-a4fb-a7e85392bc6d|31=396.40471727906134|32=0|37=aa93f1a1-543d-4e1c-bdf3-35dc6d95f9f1|38=487|39=2|44=72.35072695411307|54=1|55=BBAS3|60=20250629-21:24:16.067|150=2|151=0|448=MARIA|452=1|1010=114141.95067077798|1011=MARIA|10=201|
8=FIX.4.4|9=323|35=8|1=ACC004|6=405.1084511726357|11=a6f148ca-6982-462a-b6a4-c02f0729156f|14=362|17=91f3322c-746b-49fa-b393-7e3ab94b8536|31=394.15483083990034|32=0|37=22ee8080-ede4-4bba-af9f-487542c6d7e1|38=362|39=2|44=416.06207150537097|54=2|55=BBDC4|60=20250629-21:24:16.067|150=2|151=0|448=MARIA|452=1|1010=146649.2593244941|1011=MARIA|10=072|
8=FIX.4.4|9=319|35=8|1=ACC007|6=459.5242977675982|11=c083694c-8e10-4ca0-9d49-77b33209c45d|14=146|17=29a469d5-fa92-4105-8ce0-a29214ee6606|31=493.28719088572313|32=0|37=b33270af-3c27-4783-af74-7d95168512ef|38=146|39=2|44=425.76140464947326|54=1|55=ABEV3|60=20250629-21:24:16.067|150=2|151=0|448=ANA|452=1|1010=67090.54747406935|1011=ANA|10=017|
8=FIX.4.4|9=319|35=8|1=ACC005|6=70.93049737430262|11=937b5a78-520c-42aa-a7c4-647c09a1cdae|14=775|17=c5ce7a18-370e-43cc-8601-8e698446ad96|31=89.60012339982529|32=0|37=addd4b97-3f33-4e91-9724-8505c76be47f|38=775|39=2|44=52.26087134877994|54=1|55=PETR4|60=20250629-21:24:16.067|150=2|151=0|448=JOSE|452=1|1010=54971.13546508453|1011=JOSE|10=224|
8=FIX.4.4|9=319|35=8|1=ACC004|6=428.36646724593425|11=0ea9759a-d604-48b9-a366-83eb07e82ff9|14=734|17=478a1f48-63ff-4216-988d-a92d56bf844d|31=411.34894720965406|32=0|37=24678089-eba1-4898-ae3d-97bd5552f869|38=734|39=2|44=445.3839872822145|54=1|55=BBAS3|60=20250629-21:24:16.067|150=2|151=0|448=ANA|452=1|1010=314420.9869585157|1011=ANA|10=211|
8=FIX.4.4|9=323|35=8|1=ACC009|6=336.669690389055|11=455523cc-5e99-4ece-beaf-6a4023268415|14=422|17=d55400ed-2579-4960-ac67-bdc87073d652|31=495.42691641544747|32=0|37=dee6cd68-2354-4c6d-b2e9-e50ba8219eb3|38=422|39=2|44=177.91246436266255|54=2|55=VALE3|60=20250629-21:24:16.067|150=2|151=0|448=PAULO|452=1|1010=142074.60934418123|1011=PAULO|10=170|
8=FIX.4.4|9=323|35=8|1=ACC004|6=360.5191155745619|11=a6e0e9ad-67b6-48cc-a312-030f6caf2614|14=887|17=9e32a327-049f-449e-8333-a3b690a708e2|31=332.32593988191746|32=0|37=b22b2637-a019-4fa1-b6dc-db49667cc07d|38=887|39=2|44=388.71229126720635|54=2|55=ITUB4|60=20250629-21:24:16.067|150=2|151=0|448=PAULO|452=1|1010=319780.4555146364|1011=PAULO|10=174|
8=FIX.4.4|9=320|35=8|1=ACC009|6=283.8631960276154|11=e3efe541-3143-438e-a5b2-24d4463cead4|14=162|17=5f95c489-17fd-46b5-b889-653f269f6784|31=383.19243722570553|32=0|37=f69f4b20-ed3c-4228-bd4e-ab44b1cac0ec|38=162|39=2|44=184.53395482952524|54=2|55=MGLU3|60=20250629-21:24:16.067|150=2|151=0|448=ANA|452=1|1010=45985.837756473695|1011=ANA|10=052|
8=FIX.4.4|9=321|35=8|1=ACC001|6=239.69125049877726|11=5a2d7d2f-6306-4d95-8aaa-416326b7dbe9|14=431|17=8fc286f4-db5d-4276-bc9e-8bb6db29fb9f|31=402.40150652143416|32=0|37=6b442ad7-13a5-41d3-a673-3471c36cb5ca|38=431|39=2|44=76.9809944761204|54=1|55=BBAS3|60=20250629-21:24:16.067|150=2|151=0|448=MARIA|452=1|1010=103306.928964973|1011=MARIA|10=220|
8=FIX.4.4|9=318|35=8|1=ACC003|6=282.73391432609833|11=e2329ec4-410f-480d-bfe4-0870dcbf5d08|14=153|17=e0fc6a8b-e75f-4341-a818-602bbb2e2f8a|31=267.6422620242923|32=0|37=856552fc-7390-4a7d-b4fe-21a241d0f08e|38=153|39=2|44=297.8255666279044|54=1|55=BBDC4|60=20250629-21:24:16.067|150=2|151=0|448=ANA|452=1|1010=43258.28889189305|1011=ANA|10=160|
8=FIX.4.4|9=322|35=8|1=ACC010|6=451.88554618119156|11=de6e1238-0b8c-48c8-a7a3-01d2f9a6faba|14=825|17=9d741ecd-ceb8-4540-be2a-2d56bbf64d3f|31=484.85385436287476|32=0|37=14be1467-e933-443a-b88c-54fe9d952d01|38=825|39=2|44=418.9172379995084|54=1|55=PETR4|60=20250629-21:24:16.069|150=2|151=0|448=JOSE|452=1|1010=372805.57559948304|1011=JOSE|10=194|
8=FIX.4.4|9=323|35=8|1=ACC007|6=193.50354554555545|11=28d2fbec-e36b-4cdd-9f22-6a66393be38a|14=567|17=aefde8d7-e0e9-4653-8c40-0a0a033fab30|31=147.6875126504455|32=0|37=d7641dd2-a231-477e-abdd-e1f3e6e4ebb0|38=567|39=2|44=239.3195784406654|54=2|55=RENT3|60=20250629-21:24:16.069|150=2|151=0|448=MARIA|452=1|1010=109716.51032432994|1011=MARIA|10=130|
8=FIX.4.4|9=320|35=8|1=ACC008|6=402.49825779361674|11=d57a43ac-e064-4b91-a678-cd31178bce67|14=832|17=cc0d8e89-5444-4688-ab4d-b468b668ec2e|31=434.5492820971912|32=0|37=6c4cb1a1-93ba-4291-83fe-9c9475e3b83b|38=832|39=2|44=370.4472334900422|54=1|55=LREN3|60=20250629-21:24:16.069|150=2|151=0|448=JOSE|452=1|1010=334878.5504842891|1011=JOSE|10=081|
8=FIX.4.4|9=321|35=8|1=ACC004|6=94.9989329175058|11=5e836331-a9e3-4cf2-b960-0d4820d2e390|14=796|17=40006875-d79c-4b90-9ec2-d278515e44af|31=75.24821754211877|32=0|37=c145ab82-0b06-464e-b076-5285a5ffd9f1|38=796|39=2|44=114.74964829289283|54=2|55=LREN3|60=20250629-21:24:16.069|150=2|151=0|448=PAULO|452=1|1010=75619.15060233462|1011=PAULO|10=122|
8=FIX.4.4|9=321|35=8|1=ACC004|6=273.3145738006071|11=7a571868-6495-457d-8378-4c3185890c9c|14=875|17=f417e7e2-84cc-4c2c-8a6a-cdbd974324fd|31=195.9525065818905|32=0|37=2b3d4728-a60b-4a1e-8857-25a085e691f7|38=875|39=2|44=350.6766410193237|54=2|55=ABEV3|60=20250629-21:24:16.069|150=2|151=0|448=PAULO|452=1|1010=239150.2520755312|1011=PAULO|10=092|
8=FIX.4.4|9=327|35=8|1=ACC003|6=207.45629637742834|11=d5601c1d-f8d8-4797-8a3c-6cb7ba5bd2ff|14=251|17=486a6108-9766-4d3a-92f9-84949e3681ce|31=246.45444912130506|32=0|37=6de41ad1-c847-40c0-b224-c62155cb4239|38=251|39=2|44=168.45814363355163|54=2|55=VALE3|60=20250629-21:24:16.069|150=2|151=0|448=CARLOS|452=1|1010=52071.530390734515|1011=CARLOS|10=036|
8=FIX.4.4|9=326|35=8|1=ACC005|6=288.14817078578585|11=603a2d6d-a063-488d-a9d8-61be29729bd2|14=801|17=846e4f64-4612-4b1b-a6b9-2862d27f4208|31=498.84925546975836|32=0|37=ebd9c210-c77f-4b7a-81ca-b6dadcbaed77|38=801|39=2|44=77.44708610181335|54=1|55=ABEV3|60=20250629-21:24:16.069|150=2|151=0|448=CARLOS|452=1|1010=230806.68479941448|1011=CARLOS|10=059|
8=FIX.4.4|9=326|35=8|1=ACC010|6=299.69462616502443|11=d69101bf-6435-4de6-83a1-972602bc9601|14=613|17=23a1c85c-d8f0-4fa3-a743-bf1cfcd40898|31=468.2205021265325|32=0|37=788aed79-7586-4609-9a68-c4fd78a6d339|38=613|39=2|44=131.16875020351637|54=2|55=VALE3|60=20250629-21:24:16.069|150=2|151=0|448=CARLOS|452=1|1010=183712.80583915996|1011=CARLOS|10=217|
8=FIX.4.4|9=319|35=8|1=ACC010|6=267.7960010980097|11=0f5a7c96-59ce-4a56-8c7b-a520fd55f119|14=133|17=345d073b-e502-46d2-8347-9248d3207488|31=241.8198857373948|32=0|37=844fd74e-45e4-4e64-9261-d085eb3dd319|38=133|39=2|44=293.7721164586246|54=2|55=BBDC4|60=20250629-21:24:16.069|150=2|151=0|448=JOSE|452=1|1010=35616.86814603529|1011=JOSE|10=089|
8=FIX.4.4|9=323|35=8|1=ACC004|6=286.8993947660938|11=ecec6218-52c8-421b-9ba9-9698fbef8c5a|14=197|17=aea89b1c-0ff5-474b-9300-276ab0b42b4c|31=391.98089355312266|32=0|37=d488ecbb-413c-4fb1-87ce-b26518662555|38=197|39=2|44=181.81789597906487|54=2|55=WEGE3|60=20250629-21:24:16.069|150=2|151=0|448=MARIA|452=1|1010=56519.18076892048|1011=MARIA|10=129|
8=FIX.4.4|9=324|35=8|1=ACC010|6=165.66225131858943|11=336e5213-428a-4b7a-9317-0737d522fd05|14=152|17=81c93df7-c1eb-4b15-95b2-4430181c3f2d|31=216.12821396818615|32=0|37=6c78335c-2df0-428f-ba88-0a6e7353db02|38=152|39=2|44=115.19628866899268|54=1|55=RENT3|60=20250629-21:24:16.069|150=2|151=0|448=MARIA|452=1|1010=25180.66220042559|1011=MARIA|10=170|
8=FIX.4.4|9=319|35=8|1=ACC001|6=330.343518324447|11=d5d29cf1-342a-42b1-9c4a-062c108d27f4|14=342|17=2fca77de-2fa7-48c3-9e87-49a3d0ae2e80|31=356.38922282372664|32=0|37=3960d09a-34c1-49b6-9975-ce94cdd60746|38=342|39=2|44=304.29781382516745|54=2|55=LREN3|60=20250629-21:24:16.069|150=2|151=0|448=ANA|452=1|1010=112977.48326696087|1011=ANA|10=081|
8=FIX.4.4|9=321|35=8|1=ACC008|6=91.00117534710174|11=21638366-a909-4c04-809f-d402d38f2dc2|14=524|17=0446e979-ebcb-4d14-8b48-e39b3a24bd7e|31=75.8485500956109|32=0|37=6f903b11-d70d-4e09-8955-67969373f528|38=524|39=2|44=106.15380059859257|54=1|55=RENT3|60=20250629-21:24:16.069|150=2|151=0|448=MARIA|452=1|1010=47684.61588188131|1011=MARIA|10=232|
8=FIX.4.4|9=325|35=8|1=ACC006|6=352.75675772381095|11=f4ec8e1e-2fe5-457f-9a07-48732f8eeffa|14=643|17=62f51c51-143f-45b2-b153-43426061b116|31=443.33088895323874|32=0|37=4601b450-b13a-4184-8b6a-a63ccbee772e|38=643|39=2|44=262.18262649438316|54=1|55=BBAS3|60=20250629-21:24:16.070|150=2|151=0|448=MARIA|452=1|1010=226822.59521641044|1011=MARIA|10=132|
8=FIX.4.4|9=323|35=8|1=ACC007|6=428.41862459426636|11=b9a4dd2e-d24d-43b7-843f-cac66d6fa179|14=843|17=0c7e8f16-ad99-479a-a80e-b047fc1a2100|31=471.6240570630954|32=0|37=4872eb72-5ca2-4882-bb6a-7bfed64eacb0|38=843|39=2|44=385.2131921254374|54=1|55=RENT3|60=20250629-21:24:16.070|150=2|151=0|448=MARIA|452=1|1010=361156.90053296654|1011=MARIA|10=234|
8=FIX.4.4|9=323|35=8|1=ACC009|6=301.761428825312|11=2fbfbd50-2a3f-46b6-9bc6-3da84d747791|14=358|17=770d2ebe-dde0-43d1-8540-edbc7469d6dd|31=317.38988465208706|32=0|37=d22fde1e-a8f4-444a-9f5d-3cc3efcad11b|38=358|39=2|44=286.1329729985369|54=2|55=MGLU3|60=20250629-21:24:16.070|150=2|151=0|448=CARLOS|452=1|1010=108030.5915194617|1011=CARLOS|10=018|
8=FIX.4.4|9=319|35=8|1=ACC003|6=275.6951651795548|11=49741be2-61fd-4cd1-b885-dfe83b7d6d50|14=146|17=ce9119f2-d031-43f2-90e6-cd38f0ef4b63|31=55.41677377495697|32=0|37=925bafe8-f55d-4574-b651-382539e46401|38=146|39=2|44=495.9735565841526|54=1|55=WEGE3|60=20250629-21:24:16.070|150=2|151=0|448=MARIA|452=1|1010=40251.494116215|1011=MARIA|10=159|
8=FIX.4.4|9=319|35=8|1=ACC010|6=368.51156956450836|11=b78b765e-5f3e-4e1f-84ac-8be8af51675a|14=875|17=8ca21dd5-f807-4765-8d0b-eb3d9911436f|31=289.7684279750807|32=0|37=565ad8d3-6866-4034-82be-6390f99c0b69|38=875|39=2|44=447.25471115393606|54=2|55=BBAS3|60=20250629-21:24:16.070|150=2|151=0|448=ANA|452=1|1010=322447.6233689448|1011=ANA|10=078|
8=FIX.4.4|9=321|35=8|1=ACC005|6=256.7394679953788|11=c1b97e84-f457-4064-83cb-95b2f5329f59|14=764|17=ab5d4ddf-149f-49eb-86e1-8c6bead3d07d|31=20.13893238488097|32=0|37=a0b51ba0-adf7-446f-b09b-e16c04f7e56a|38=764|39=2|44=493.3400036058766|54=2|55=BBDC4|60=20250629-21:24:16.070|150=2|151=0|448=MARIA|452=1|1010=196148.9535484694|1011=MARIA|10=116|
8=FIX.4.4|9=324|35=8|1=ACC002|6=229.26011460482124|11=17156ca0-33bc-46a0-8597-00d0e238f43d|14=446|17=6e4f7c70-659e-4219-845c-5961a61b0fe2|31=312.2051454451954|32=0|37=5d3566d4-4e1c-46ab-929e-37a51b4d854d|38=446|39=2|44=146.31508376444705|54=2|55=ITUB4|60=20250629-21:24:16.070|150=2|151=0|448=MARIA|452=1|1010=102250.01111375027|1011=MARIA|10=113|
8=FIX.4.4|9=323|35=8|1=ACC005|6=343.8091131418435|11=adcad19b-ad3f-4cf8-a4bb-dfdc3e1b9b74|14=219|17=455cb72f-74b8-49a0-a454-c8625d462f7d|31=458.41340109298346|32=0|37=17899930-498d-41e4-ad57-dd895b2ad4b3|38=219|39=2|44=229.20482519070356|54=1|55=BBAS3|60=20250629-21:24:16.070|150=2|151=0|448=PAULO|452=1|1010=75294.19577806373|1011=PAULO|10=221|
8=FIX.4.4|9=321|35=8|1=ACC010|6=259.2650279472591|11=8dde70de-638c-41d7-a65f-caf1d7b896d3|14=513|17=d51d92e9-e9a0-486b-8292-095ef7d64112|31=267.5246300878363|32=0|37=bffba8ff-b85c-4992-b1db-c6343baa6473|38=513|39=2|44=251.005425806682|54=1|55=BBAS3|60=20250629-21:24:16.070|150=2|151=0|448=PAULO|452=1|1010=133002.95933694392|1011=PAULO|10=070|
8=FIX.4.4|9=322|35=8|1=ACC005|6=161.65333448897243|11=76a8f863-abcb-4523-a3fe-726161e9e4ae|14=412|17=be1920cd-da19-41d0-a72f-109eec461bb4|31=73.10547933054278|32=0|37=b082281c-09c4-481d-9d7c-8c861377897d|38=412|39=2|44=250.2011896474021|54=2|55=VALE3|60=20250629-21:24:16.070|150=2|151=0|448=MARIA|452=1|1010=66601.17380945664|1011=MARIA|10=079|
8=FIX.4.4|9=324|35=8|1=ACC008|6=259.19577787726683|11=3e006a7c-789e-44e1-a234-c499fe19e38f|14=209|17=bcc5d16b-1199-4579-acf5-4c8b1a7e10d6|31=154.29773947226792|32=0|37=13b0aa64-39cd-410f-adf3-9e1ad26ad2a9|38=209|39=2|44=364.0938162822658|54=1|55=WEGE3|60=20250629-21:24:16.070|150=2|151=0|448=PAULO|452=1|1010=54171.917576348766|1011=PAULO|10=231|
8=FIX.4.4|9=324|35=8|1=ACC001|6=199.30698718085776|11=93f68875-9eb4-47c8-94cf-466bdefddbe6|14=703|17=878e1517-5a51-465a-9f94-7caa6cc10202|31=264.4898173928384|32=0|37=29df48da-bb9e-4260-b1d9-58fbd4a9cc0b|38=703|39=2|44=134.12415696887712|54=2|55=LREN3|60=20250629-21:24:16.070|150=2|151=0|448=PAULO|452=1|1010=140112.81198814302|1011=PAULO|10=243|
8=FIX.4.4|9=325|35=8|1=ACC008|6=253.4912698482754|11=d030df9c-1370-4691-80fb-9d6382c5c596|14=645|17=0a96a51c-3562-470e-9fcf-155deed818a0|31=200.60098089727055|32=0|37=37749206-94f3-49a4-a1b5-50221a63848a|38=645|39=2|44=306.3815587992803|54=2|55=BBDC4|60=20250629-21:24:16.070|150=2|151=0|448=CARLOS|452=1|1010=163501.86905213763|1011=CARLOS|10=195|
8=FIX.4.4|9=319|35=8|1=ACC004|6=275.5407784021291|11=75948c22-df57-4079-97ee-7b00916e5e9f|14=857|17=2ba17380-6279-413e-864a-31e6fe18e79e|31=493.97502075713635|32=0|37=722aa2b7-6835-4e0a-a57c-ee529cb6825c|38=857|39=2|44=57.10653604712185|54=2|55=BBDC4|60=20250629-21:24:16.071|150=2|151=0|448=ANA|452=1|1010=236138.44709062463|1011=ANA|10=131|
8=FIX.4.4|9=319|35=8|1=ACC005|6=353.68460285093994|11=448aa47b-c4bb-46c0-a536-8bc2aa6c2f57|14=773|17=e94002af-b46d-4639-bd67-28bdbb010980|31=299.63811832431287|32=0|37=400691c7-3ffe-4dfc-9e38-f6446262379c|38=773|39=2|44=407.731087377567|54=2|55=VALE3|60=20250629-21:24:16.071|150=2|151=0|448=ANA|452=1|1010=273398.19800377655|1011=ANA|10=142|
8=FIX.4.4|9=323|35=8|1=ACC009|6=154.39079539467437|11=ee72670f-dfdb-45f8-b9e1-e0b610359d4f|14=565|17=8f06247a-da95-47ea-a3ba-07b0ffbe785b|31=216.08368546596103|32=0|37=9ad995c6-f3dc-48df-a08a-650418f4179a|38=565|39=2|44=92.69790532338773|54=1|55=WEGE3|60=20250629-21:24:16.071|150=2|151=0|448=PAULO|452=1|1010=87230.79939799102|1011=PAULO|10=047|
8=FIX.4.4|9=322|35=8|1=ACC001|6=322.6669198223655|11=6666c738-e5c0-4bf9-ab10-7cbb8bb1ef3b|14=457|17=b597f1aa-68c9-4fe6-8495-454d9bd16bec|31=310.1750647940845|32=0|37=3671b2cc-d424-42df-9079-9260f5e224b3|38=457|39=2|44=335.1587748506465|54=2|55=RENT3|60=20250629-21:24:16.071|150=2|151=0|448=PAULO|452=1|1010=147458.78235882104|1011=PAULO|10=034|
8=FIX.4.4|9=325|35=8|1=ACC003|6=449.4928929222307|11=82940ed0-7517-4fcb-a542-f25502b5b178|14=806|17=cfe595a1-e6bd-4408-a8e6-4420e58c8d33|31=407.58605236037204|32=0|37=7a80fd19-b5bc-4a94-870a-2918943b51a7|38=806|39=2|44=491.3997334840893|54=1|55=MGLU3|60=20250629-21:24:16.071|150=2|151=0|448=CARLOS|452=1|1010=362291.27169531793|1011=CARLOS|10=172|
8=FIX.4.4|9=323|35=8|1=ACC004|6=126.88667044424444|11=f55c084e-4a5c-4081-9233-3869972a2c3a|14=745|17=e1b5ffd6-3163-4437-b920-9cfcf9d24273|31=56.83868258343369|32=0|37=fb0b5eca-6c51-4d47-9ed4-18742defe9ec|38=745|39=2|44=196.9346583050552|54=2|55=WEGE3|60=20250629-21:24:16.071|150=2|151=0|448=CARLOS|452=1|1010=94530.5694809621|1011=CARLOS|10=022|
8=FIX.4.4|9=323|35=8|1=ACC007|6=261.7122101282105|11=fcb233ea-8205-4af6-a747-aecf2e8c10a2|14=549|17=221f573e-2e1d-44be-9367-cd1611419fa4|31=243.28462283599447|32=0|37=b130af40-d70a-4f35-b7ad-dc084fc1e039|38=549|39=2|44=280.1397974204265|54=1|55=VALE3|60=20250629-21:24:16.071|150=2|151=0|448=PAULO|452=1|1010=143680.00336038755|1011=PAULO|10=068|
8=FIX.4.4|9=321|35=8|1=ACC004|6=305.55154323576073|11=a78fcec9-2580-4607-8c9a-5b200525d94b|14=988|17=0f6f6cfd-f899-4917-b127-b4a8c91f6e48|31=361.7158716128515|32=0|37=260ec37b-ba5f-42cd-97f7-85ef4aaa5a84|38=988|39=2|44=249.38721485866995|54=2|55=LREN3|60=20250629-21:24:16.071|150=2|151=0|448=JOSE|452=1|1010=301884.9247169316|1011=JOSE|10=215|
8=FIX.4.4|9=315|35=8|1=ACC007|6=300.3524406481015|11=1113501e-88c7-4298-bc40-7fe9118f5455|14=335|17=8f9b3f2d-c911-43d0-bfd1-dd490cdb7b3a|31=174.50723983467296|32=0|37=534435ea-3d7f-4364-b8b6-b1216b8bb1c8|38=335|39=2|44=426.19764146153|54=2|55=VALE3|60=20250629-21:24:16.071|150=2|151=0|448=ANA|452=1|1010=100618.067617114|1011=ANA|10=058|
8=FIX.4.4|9=323|35=8|1=ACC010|6=249.43359685582936|11=00f65acc-1208-469d-9465-d3721e1bb2cc|14=108|17=88c78d6e-3590-42df-88b5-e7f29037b8a8|31=270.6163585844662|32=0|37=45b6780f-e137-47d4-8bb1-0207e97b47a2|38=108|39=2|44=228.25083512719252|54=1|55=WEGE3|60=20250629-21:24:16.071|150=2|151=0|448=PAULO|452=1|1010=26938.82846042957|1011=PAULO|10=249|
8=FIX.4.4|9=319|35=8|1=ACC007|6=320.55841053735844|11=9959dfa7-8d97-4459-9073-732a406d831d|14=314|17=abde5f62-2dd5-49ae-bc77-635912e76283|31=281.5329679294009|32=0|37=5803ba63-cdff-4608-bf0f-b601838d3bc8|38=314|39=2|44=359.5838531453159|54=2|55=ABEV3|60=20250629-21:24:16.072|150=2|151=0|448=ANA|452=1|1010=100655.34090873055|1011=ANA|10=236|
8=FIX.4.4|9=323|35=8|1=ACC004|6=393.8794473690673|11=8c175005-effa-40c2-8a14-64c4e39dbe1b|14=323|17=c035d584-b25f-4504-817a-0f0d6a72a79d|31=461.8296793331068|32=0|37=3d95300f-bbbc-43a2-815f-f91f760187a8|38=323|39=2|44=325.92921540502783|54=2|55=VALE3|60=20250629-21:24:16.072|150=2|151=0|448=PAULO|452=1|1010=127223.06150020873|1011=PAULO|10=116|
8=FIX.4.4|9=317|35=8|1=ACC002|6=91.79535987855675|11=9e9c89f9-8c0b-48fa-b649-ce1259580ccb|14=673|17=78ab7310-65ce-4159-9321-39a31ff8e5d0|31=157.89954174507588|32=0|37=140321df-1671-48bd-bd10-850e34cbd2d0|38=673|39=2|44=25.69117801203764|54=1|55=BBDC4|60=20250629-21:24:16.072|150=2|151=0|448=ANA|452=1|1010=61778.2771982687|1011=ANA|10=198|
8=FIX.4.4|9=319|35=8|1=ACC007|6=208.8117670723876|11=8f89c230-8497-4eae-925a-8cdeb1637678|14=181|17=0c77685f-145d-4e60-be12-702ae188b20f|31=52.06425783203562|32=0|37=b70c4269-32c1-4a98-b453-9a707f6ee997|38=181|39=2|44=365.5592763127396|54=2|55=BBDC4|60=20250629-21:24:16.072|150=2|151=0|448=JOSE|452=1|1010=37794.92984010215|1011=JOSE|10=179|
8=FIX.4.4|9=318|35=8|1=ACC010|6=220.07567783273566|11=cfdebd5f-5162-4b96-81ca-8c7d4eeb6eb9|14=221|17=24049713-d73a-461e-892d-5a9c6c21bf89|31=373.4163346857143|32=0|37=c9fb9efe-f511-4634-a636-ee9da267ceda|38=221|39=2|44=66.73502097975707|54=2|55=ITUB4|60=20250629-21:24:16.072|150=2|151=0|448=ANA|452=1|1010=48636.72480103458|1011=ANA|10=173|
8=FIX.4.4|9=321|35=8|1=ACC006|6=447.14328967205915|11=4fc43d12-522d-478f-94a6-e2100121df07|14=874|17=b00176c2-a71f-46ac-8618-74293a08b407|31=484.56292016550475|32=0|37=2b3e862b-48aa-4c1d-bdd5-43b1c2fdf6be|38=874|39=2|44=409.7236591786135|54=2|55=RENT3|60=20250629-21:24:16.072|150=2|151=0|448=JOSE|452=1|1010=390803.2351733797|1011=JOSE|10=245|
8=FIX.4.4|9=321|35=8|1=ACC009|6=204.08076391190377|11=7ce30a98-0d86-4ad3-bd4d-9b84a135dc81|14=228|17=d4c873d3-582e-452b-ac3b-a7c2a43f3f69|31=99.11428131796055|32=0|37=11dafc82-247f-44be-8eea-cf22361f88db|38=228|39=2|44=309.047246505847|54=2|55=LREN3|60=20250629-21:24:16.072|150=2|151=0|448=PAULO|452=1|1010=46530.41417191406|1011=PAULO|10=115|
8=FIX.4.4|9=319|35=8|1=ACC005|6=47.5660675410142|11=1706fd5f-c474-49a4-8b6f-9ca9fe66ff41|14=914|17=11d03d0f-a96a-41e8-b726-1d05ae4ac89b|31=85.03082520285791|32=0|37=122d7a8d-816a-4f97-9bc8-5f10f4428fb4|38=914|39=2|44=10.10130987917048|54=1|55=WEGE3|60=20250629-21:24:16.072|150=2|151=0|448=JOSE|452=1|1010=43475.385732486975|1011=JOSE|10=052|
8=FIX.4.4|9=323|35=8|1=ACC009|6=369.7605145531204|11=5d3fbce3-ea6e-4c22-9977-ff541a6860c1|14=761|17=04400f7e-5ca9-4184-ad44-dd350403c7a8|31=393.93934809034147|32=0|37=953d88a2-ded7-44c1-8db5-1cc5ba1328fa|38=761|39=2|44=345.58168101589933|54=2|55=BBAS3|60=20250629-21:24:16.072|150=2|151=0|448=MARIA|452=1|1010=281387.7515749246|1011=MARIA|10=243|
8=FIX.4.4|9=319|35=8|1=ACC005|6=248.0856849988601|11=51abe1ed-ac6d-496c-898b-2f8fed7ee60a|14=948|17=f054b201-443e-41eb-8e5e-c8d14df1470f|31=427.206310133839|32=0|37=71979daa-9836-4255-b50f-c08682dd496c|38=948|39=2|44=68.96505986388121|54=2|55=BBAS3|60=20250629-21:24:16.072|150=2|151=0|448=JOSE|452=1|1010=235185.22937891938|1011=JOSE|10=137|
8=FIX.4.4|9=319|35=8|1=ACC009|6=150.7915421364839|11=270b59e7-5b43-4700-a114-7447eaa032d4|14=387|17=97880063-ed8d-470a-8f64-b56f54872a40|31=178.22815440400748|32=0|37=701741ba-2c7b-4982-9528-ec9a01e2fec5|38=387|39=2|44=123.35492986896035|54=1|55=BBAS3|60=20250629-21:24:16.072|150=2|151=0|448=ANA|452=1|1010=58356.32680681928|1011=ANA|10=240|
8=FIX.4.4|9=324|35=8|1=ACC004|6=449.59026441018847|11=8ddf0704-3874-44d3-90cc-806134540b93|14=380|17=38be9427-0df2-4e34-ae1b-9265edded15b|31=486.2414955285821|32=0|37=026b6e1a-e138-486e-8002-729231250c4e|38=380|39=2|44=412.93903329179483|54=1|55=PETR4|60=20250629-21:24:16.072|150=2|151=0|448=MARIA|452=1|1010=170844.30047587163|1011=MARIA|10=131|
8=FIX.4.4|9=324|35=8|1=ACC001|6=329.1173874353429|11=f49ed61a-8a20-41ab-a531-d60189f4ece9|14=725|17=7e204c05-7124-4863-ba6e-762b4f310dd0|31=490.6091934796191|32=0|37=4b42f46e-4e1e-40f1-940a-ad6864fc7c18|38=725|39=2|44=167.6255813910667|54=1|55=BBDC4|60=20250629-21:24:16.073|150=2|151=0|448=CARLOS|452=1|1010=238610.10589062358|1011=CARLOS|10=191|
8=FIX.4.4|9=316|35=8|1=ACC009|6=246.5778901325269|11=2bdcdf02-9546-4786-b85d-a77d7a5d9c53|14=395|17=72c55166-6f59-46ad-af11-d236eb9ed6b4|31=60.30419757878281|32=0|37=da9469cf-d0b0-4677-a30a-2d01b6b872d7|38=395|39=2|44=432.851582686271|54=2|55=LREN3|60=20250629-21:24:16.073|150=2|151=0|448=ANA|452=1|1010=97398.26660234813|1011=ANA|10=057|
8=FIX.4.4|9=320|35=8|1=ACC004|6=433.9521802567639|11=d370614e-71fc-4e78-8cd9-d455b6d2761a|14=702|17=5f88312c-0494-4506-92b4-ee406bb75df6|31=466.9824374291185|32=0|37=caf319af-b539-4132-bfa6-dc2ceb0ff650|38=702|39=2|44=400.92192308440934|54=1|55=BBDC4|60=20250629-21:24:16.073|150=2|151=0|448=JOSE|452=1|1010=304634.4305402482|1011=JOSE|10=241|
8=FIX.4.4|9=325|35=8|1=ACC007|6=122.33455856415083|11=e1a772bc-705e-44d7-a92b-3c65d5a1935f|14=619|17=e627911d-4785-46e9-9960-9960b016bd9f|31=174.77462606804613|32=0|37=0789e00b-5237-4651-9285-7ca58a918be4|38=619|39=2|44=69.89449106025553|54=1|55=ABEV3|60=20250629-21:24:16.073|150=2|151=0|448=CARLOS|452=1|1010=75725.09175120936|1011=CARLOS|10=196|
8=FIX.4.4|9=323|35=8|1=ACC004|6=349.64141706594796|11=55b957dd-6148-407e-8753-7206c1f80804|14=548|17=46032ca1-840c-458c-a682-7a38b247a193|31=395.5502988498815|32=0|37=cafedd13-5253-4d8b-bd26-ec2cf966688d|38=548|39=2|44=303.73253528201445|54=1|55=BBAS3|60=20250629-21:24:16.073|150=2|151=0|448=MARIA|452=1|1010=191603.4965521395|1011=MARIA|10=141|
8=FIX.4.4|9=323|35=8|1=ACC005|6=246.39694962765765|11=18351262-a9c1-41ac-8187-b0988659e9e5|14=906|17=bce72fa6-2bad-48fb-81e1-dc806eb572e2|31=203.7083387434065|32=0|37=44a1d837-1dd6-4669-ad64-dd235a2a89b1|38=906|39=2|44=289.0855605119088|54=2|55=ABEV3|60=20250629-21:24:16.073|150=2|151=0|448=PAULO|452=1|1010=223235.63636265782|1011=PAULO|10=176|
8=FIX.4.4|9=323|35=8|1=ACC009|6=201.1993692809054|11=83d6216a-a416-4675-ba4e-a932069bae85|14=280|17=402ef58f-a502-4f34-8bcc-d4b2e65026b3|31=247.3942917679127|32=0|37=077783a4-4a7d-4c48-b44c-ecdf7e24b4cc|38=280|39=2|44=155.00444679389807|54=2|55=ITUB4|60=20250629-21:24:16.073|150=2|151=0|448=PAULO|452=1|1010=56335.823398653505|1011=PAULO|10=014|
8=FIX.4.4|9=324|35=8|1=ACC008|6=290.0847332756208|11=1f8580c4-4ca4-4487-89b2-31b2dd48dffd|14=218|17=7bdb12ac-1781-4f5d-84da-ce7604ec5002|31=233.89436403456298|32=0|37=fe519a0a-b601-43d3-b068-ff9364559368|38=218|39=2|44=346.27510251667866|54=1|55=ITUB4|60=20250629-21:24:16.073|150=2|151=0|448=MARIA|452=1|1010=63238.471854085336|1011=MARIA|10=178|
8=FIX.4.4|9=321|35=8|1=ACC006|6=198.37872287757693|11=c697d328-fa92-4523-a782-7b837ff282ac|14=440|17=73ea4900-58b0-4677-940d-77dfb3ef056d|31=281.2175810777596|32=0|37=215ffba3-b11a-4989-85d3-4e5715f76e18|38=440|39=2|44=115.53986467739426|54=1|55=PETR4|60=20250629-21:24:16.073|150=2|151=0|448=JOSE|452=1|1010=87286.63806613385|1011=JOSE|10=158|
8=FIX.4.4|9=325|35=8|1=ACC003|6=237.68880995520425|11=2aadbe09-01f2-4ce6-9dea-ff5ef7ce3b05|14=181|17=0fd5a419-8478-4c37-8361-bdf6640b43a9|31=307.16870696768433|32=0|37=9edfbbb9-6218-44cd-9e75-d298c52e04b2|38=181|39=2|44=168.20891294272414|54=2|55=MGLU3|60=20250629-21:24:16.073|150=2|151=0|448=MARIA|452=1|1010=43021.674601891966|1011=MARIA|10=025|
8=FIX.4.4|9=319|35=8|1=ACC010|6=286.453717395649|11=a8466041-62c6-4232-8b71-eb169ffcea18|14=151|17=50839ed3-5711-4613-a540-5c77dd691b7e|31=218.67636989229268|32=0|37=e17b7bca-f95d-4164-885b-f947aa6e7027|38=151|39=2|44=354.2310648990053|54=2|55=PETR4|60=20250629-21:24:16.073|150=2|151=0|448=MARIA|452=1|1010=43254.511326743|1011=MARIA|10=006|
8=FIX.4.4|9=324|35=8|1=ACC008|6=164.42632320629593|11=32def116-2c67-426e-a5af-89ef12abbf36|14=915|17=0a391ed9-e2f7-47e8-b5d6-94fb9985d490|31=69.98070634159134|32=0|37=91fa297d-bf22-49e3-a8cb-6d6aca1edfa0|38=915|39=2|44=258.8719400710005|54=1|55=MGLU3|60=20250629-21:24:16.073|150=2|151=0|448=CARLOS|452=1|1010=150450.0857337608|1011=CARLOS|10=129|
8=FIX.4.4|9=320|35=8|1=ACC010|6=376.14588243272476|11=1b8a8f77-8039-48b2-ac98-d1d341856dd8|14=398|17=86d77c77-d9d3-48be-9c13-fc25ee75bf15|31=485.7287286071622|32=0|37=a2fa196f-e9cd-47cd-80ec-5dbcf8814f4f|38=398|39=2|44=266.56303625828735|54=2|55=PETR4|60=20250629-21:24:16.073|150=2|151=0|448=ANA|452=1|1010=149706.06120822445|1011=ANA|10=227|
8=FIX.4.4|9=327|35=8|1=ACC010|6=277.82935180237007|11=bbbacb67-490b-41e8-8ccd-32ea7a46d2b5|14=483|17=c5275bf0-6ca0-4c35-8c82-1a2c76f4a2ff|31=348.57094243101494|32=0|37=3cd82bc0-5621-4c72-91da-62edb3c62e5c|38=483|39=2|44=207.08776117372517|54=1|55=ITUB4|60=20250629-21:24:16.073|150=2|151=0|448=CARLOS|452=1|1010=134191.57692054476|1011=CARLOS|10=234|
8=FIX.4.4|9=322|35=8|1=ACC005|6=83.96387805518478|11=7a396bf0-eb71-41c7-90f2-3d573e371575|14=561|17=33b98757-6530-44e8-941c-4c5862336bb8|31=65.35085993684001|32=0|37=6e6f02f5-11d3-40d5-8d90-d09223b0808f|38=561|39=2|44=102.57689617352955|54=2|55=PETR4|60=20250629-21:24:16.075|150=2|151=0|448=PAULO|452=1|1010=47103.73558895866|1011=PAULO|10=215|
8=FIX.4.4|9=324|35=8|1=ACC001|6=217.2608034052682|11=edbb1d86-8596-4ac3-bfc9-90ebbebb1391|14=137|17=bc53bbd5-8809-4315-9795-c81ca58a5a6f|31=351.9683273130769|32=0|37=2c60ce9c-f5f0-448c-988f-36076f610088|38=137|39=2|44=82.55327949745954|54=2|55=BBAS3|60=20250629-21:24:16.075|150=2|151=0|448=CARLOS|452=1|1010=29764.730066521744|1011=CARLOS|10=095|
8=FIX.4.4|9=324|35=8|1=ACC004|6=233.11096364252847|11=66cd8f0c-f840-4494-bb46-410db0b15b60|14=267|17=fb27a973-94ee-4ba1-a867-7fdef94aa245|31=299.5262617465106|32=0|37=d6abc6fe-cada-4b0f-bc74-8ec2e3609368|38=267|39=2|44=166.69566553854634|54=2|55=WEGE3|60=20250629-21:24:16.075|150=2|151=0|448=CARLOS|452=1|1010=62240.6272925551|1011=CARLOS|10=112|
8=FIX.4.4|9=321|35=8|1=ACC006|6=327.2045461502063|11=c2e634a0-cb6f-44fb-940d-7a75c3f526e3|14=405|17=5c9bb129-0d6d-49fc-95c8-d37b94e0e9b7|31=477.865270321051|32=0|37=af737625-c77e-465b-b8d2-fb200f9651b5|38=405|39=2|44=176.5438219793616|54=2|55=ITUB4|60=20250629-21:24:16.075|150=2|151=0|448=MARIA|452=1|1010=132517.84119083354|1011=MARIA|10=150|
8=FIX.4.4|9=318|35=8|1=ACC005|6=76.2396298052965|11=a8c0f692-f70b-401a-b4bc-39f7c4833d65|14=232|17=106300cf-25f8-4cda-9b5b-c5abb9468b10|31=18.67221143637729|32=0|37=1caf6584-e12f-4bd6-b9d8-a18f90b59458|38=232|39=2|44=133.8070481742157|54=1|55=ITUB4|60=20250629-21:24:16.075|150=2|151=0|448=JOSE|452=1|1010=17687.59411482879|1011=JOSE|10=005|
8=FIX.4.4|9=323|35=8|1=ACC002|6=152.22780288162562|11=abc01363-ea92-4c36-b466-c9d1055eb12f|14=852|17=f9b989ae-a09c-479e-961d-3ef50d558297|31=273.0561633282498|32=0|37=e1e70059-57f8-4081-be2c-a135496cde79|38=852|39=2|44=31.39944243500144|54=2|55=LREN3|60=20250629-21:24:16.075|150=2|151=0|448=MARIA|452=1|1010=129698.08805514502|1011=MARIA|10=079|
8=FIX.4.4|9=321|35=8|1=ACC007|6=305.56364785513745|11=abcdbf78-ade1-43b8-a4fa-5f8c53edd059|14=532|17=3303929e-a9ba-4986-94fd-f3184ce0cd7f|31=385.18203929710967|32=0|37=a202050e-0ec3-43c9-aa6d-e18a042ba6b6|38=532|39=2|44=225.94525641316528|54=2|55=BBAS3|60=20250629-21:24:16.075|150=2|151=0|448=ANA|452=1|1010=162559.86065893312|1011=ANA|10=053|
8=FIX.4.4|9=319|35=8|1=ACC003|6=300.8931394200786|11=7885d4dc-fb17-467a-8e5c-4e6ba8047c04|14=234|17=0a327113-a92f-44ea-ae1e-8e9685964cd3|31=328.74539059056787|32=0|37=a7b19193-a7ef-43b3-9dd2-0cc27280d5b7|38=234|39=2|44=273.0408882495894|54=1|55=ABEV3|60=20250629-21:24:16.075|150=2|151=0|448=JOSE|452=1|1010=70408.9946242984|1011=JOSE|10=219|
8=FIX.4.4|9=321|35=8|1=ACC005|6=284.73615305054705|11=f32ef8b0-99f7-4daf-8a59-21417db6865f|14=683|17=41ffb8f4-f8de-4beb-a269-3c349cc93881|31=473.0546707236503|32=0|37=52d214cd-b320-4ac8-93c7-0592adde5098|38=683|39=2|44=96.41763537744374|54=2|55=ABEV3|60=20250629-21:24:16.075|150=2|151=0|448=JOSE|452=1|1010=194474.79253352364|1011=JOSE|10=167|
8=FIX.4.4|9=318|35=8|1=ACC009|6=440.8283400279885|11=9120992b-49c7-42a7-8d7a-1eaaed10f8e3|14=817|17=2f6f7718-6c39-4e0e-95e2-051419e8c506|31=469.8777663048548|32=0|37=3167db3c-e7b5-4995-9730-9c1849f49bbb|38=817|39=2|44=411.7789137511221|54=1|55=ITUB4|60=20250629-21:24:16.075|150=2|151=0|448=ANA|452=1|1010=360156.75380286656|1011=ANA|10=154|
8=FIX.4.4|9=318|35=8|1=ACC007|6=346.20083084459884|11=ba1eb64b-3f94-40b6-a7c5-7f083aa2eaf9|14=272|17=7080e1e4-e169-4f71-b2f0-6e94e7990990|31=204.3762125694054|32=0|37=4844094d-f698-46dd-b810-6deb23d8ce02|38=272|39=2|44=488.0254491197923|54=2|55=PETR4|60=20250629-21:24:16.076|150=2|151=0|448=ANA|452=1|1010=94166.62598973088|1011=ANA|10=071|
8=FIX.4.4|9=323|35=8|1=ACC007|6=151.14797865608992|11=49d6d5dc-cbb7-40eb-9f48-4106b6909461|14=654|17=fcd75c40-2d54-4be7-aced-b717fd003de5|31=240.89195386610146|32=0|37=7937660b-c558-49c4-a24c-bc2e9a8fb1e9|38=654|39=2|44=61.40400344607836|54=1|55=MGLU3|60=20250629-21:24:16.076|150=2|151=0|448=MARIA|452=1|1010=98850.77804108281|1011=MARIA|10=134|
8=FIX.4.4|9=323|35=8|1=ACC005|6=215.08372804136098|11=daedf5f5-0b99-4439-9bbf-db7e47d577f9|14=745|17=86c81d9e-abcb-4b11-9632-c5a3d2bd7a08|31=166.2966717905456|32=0|37=9c5869ad-7951-4bf6-8e4c-87dfd2da4e93|38=745|39=2|44=263.8707842921764|54=1|55=RENT3|60=20250629-21:24:16.076|150=2|151=0|448=PAULO|452=1|1010=160237.37739081393|1011=PAULO|10=113|
8=FIX.4.4|9=321|35=8|1=ACC008|6=166.9416168927496|11=ec6e79c8-dc24-432f-b212-526f43744926|14=411|17=ad2e573f-522a-438d-a305-b94ced6910cb|31=253.3872636991104|32=0|37=b1f9d543-238a-4580-aefd-76afc862bb7c|38=411|39=2|44=80.49597008638878|54=1|55=ABEV3|60=20250629-21:24:16.076|150=2|151=0|448=PAULO|452=1|1010=68613.00454292008|1011=PAULO|10=150|
8=FIX.4.4|9=324|35=8|1=ACC008|6=109.65215601595412|11=620361a5-0899-495a-895a-346192cb89fa|14=799|17=99e0aebc-f602-49a0-ad67-0db86a667ff4|31=45.15603133841641|32=0|37=aaa38574-0d52-42c7-aa8c-8b8bdaec5c5b|38=799|39=2|44=174.1482806934918|54=1|55=ABEV3|60=20250629-21:24:16.076|150=2|151=0|448=CARLOS|452=1|1010=87612.07265674735|1011=CARLOS|10=139|
8=FIX.4.4|9=321|35=8|1=ACC002|6=87.267058712197|11=cac57c7b-ac6c-453d-8696-2b2f167d7a7e|14=176|17=cdb7a85b-f96a-430e-a0e4-c41ba698543b|31=62.16886252847571|32=0|37=02992c7a-c493-4534-9bc2-1b659d020e72|38=176|39=2|44=112.36525489591828|54=2|55=WEGE3|60=20250629-21:24:16.076|150=2|151=0|448=MARIA|452=1|1010=15359.002333346672|1011=MARIA|10=110|
8=FIX.4.4|9=318|35=8|1=ACC009|6=221.96480189619552|11=4902c262-6d86-4cdf-b8db-ede0e3baf88d|14=603|17=447d0d91-6b5b-45a9-8c10-02025f77e7d7|31=162.44088813437006|32=0|37=b08986bc-664e-4a5e-8c91-ce6ab21e616f|38=603|39=2|44=281.488715658021|54=1|55=VALE3|60=20250629-21:24:16.076|150=2|151=0|448=ANA|452=1|1010=133844.7755434059|1011=ANA|10=212|
8=FIX.4.4|9=320|35=8|1=ACC007|6=105.56450124515855|11=8d2ccdb4-68b0-4e07-b3e8-01ae51265381|14=339|17=7ee4a4b1-8807-456a-b376-5c3963c5e14f|31=108.62743641747323|32=0|37=5ba3cbad-efaf-4e14-a939-d06b60c86e4f|38=339|39=2|44=102.50156607284387|54=2|55=ABEV3|60=20250629-21:24:16.076|150=2|151=0|448=ANA|452=1|1010=35786.36592210875|1011=ANA|10=013|
8=FIX.4.4|9=322|35=8|1=ACC007|6=363.94835209771713|11=5c56b3e9-5e1c-4794-a744-4953eb1e62da|14=738|17=01456cf6-e169-47c0-a121-8a875906cdd2|31=332.7738088496873|32=0|37=6ab506cb-c2d8-41e3-b07d-7086ad6fe7e6|38=738|39=2|44=395.1228953457469|54=1|55=WEGE3|60=20250629-21:24:16.076|150=2|151=0|448=MARIA|452=1|1010=268593.8838481152|1011=MARIA|10=119|
8=FIX.4.4|9=318|35=8|1=ACC005|6=379.2822157287862|11=143922cc-6ee8-49a9-9948-0adb672a56da|14=256|17=92ef5248-57aa-4be4-9387-ddf22eb806cc|31=395.5274842704707|32=0|37=b5b6cf73-79c4-429d-b567-1b30c642e2a7|38=256|39=2|44=363.03694718710165|54=1|55=LREN3|60=20250629-21:24:16.076|150=2|151=0|448=ANA|452=1|1010=97096.24722656926|1011=ANA|10=116|
8=FIX.4.4|9=321|35=8|1=ACC002|6=369.6227131148806|11=fca0e65a-38de-404d-b612-c6af76116b87|14=361|17=29684aea-2eab-42cb-aed6-afcb9c2a4f8c|31=455.3298520088821|32=0|37=55368033-6ad7-4e80-8944-b8ca70017864|38=361|39=2|44=283.9155742208791|54=1|55=BBDC4|60=20250629-21:24:16.076|150=2|151=0|448=PAULO|452=1|1010=133433.7994344719|1011=PAULO|10=205|
8=FIX.4.4|9=320|35=8|1=ACC001|6=459.5434223253208|11=5baa8c78-5ddc-4ea3-befb-9a7599910eac|14=323|17=411e83d1-8d39-4a74-b603-f16c137cdc46|31=445.6766018061916|32=0|37=1acf29c4-2f84-4ea8-8cf3-288265dd110b|38=323|39=2|44=473.41024284445|54=1|55=VALE3|60=20250629-21:24:16.076|150=2|151=0|448=MARIA|452=1|1010=148432.52541107862|1011=MARIA|10=151|
8=FIX.4.4|9=323|35=8|1=ACC008|6=373.53265049889524|11=c33a5794-8947-4661-94d6-d26480456d57|14=502|17=97de8f8e-b76f-48e2-b7e3-07a1b5c88904|31=435.01793980986866|32=0|37=24abcd1a-5eed-4266-b948-a3bb28c1d67a|38=502|39=2|44=312.04736118792175|54=1|55=BBAS3|60=20250629-21:24:16.077|150=2|151=0|448=JOSE|452=1|1010=187513.39055044542|1011=JOSE|10=036|
8=FIX.4.4|9=324|35=8|1=ACC001|6=419.76624388454877|11=f405c517-9866-4027-9c18-6f91d4eb0a32|14=413|17=04b2b1ef-a390-4505-9bb2-ceb1be93c7b8|31=418.92126554871794|32=0|37=0465b53e-899d-4844-b7bd-9d63a9e96b99|38=413|39=2|44=420.6112222203796|54=1|55=RENT3|60=20250629-21:24:16.077|150=2|151=0|448=MARIA|452=1|1010=173363.45872431865|1011=MARIA|10=109|
8=FIX.4.4|9=324|35=8|1=ACC002|6=153.5454438669367|11=beacca8b-e2e5-43b5-b1e1-c61566e92239|14=236|17=26d3e5e0-d20e-483a-bcee-6146eca7ddfb|31=268.81196673665613|32=0|37=9aae1b7f-a6a7-4fd1-ba49-a2a8e17be9e4|38=236|39=2|44=38.27892099721727|54=1|55=BBAS3|60=20250629-21:24:16.077|150=2|151=0|448=CARLOS|452=1|1010=36236.72475259706|1011=CARLOS|10=139|
8=FIX.4.4|9=320|35=8|1=ACC005|6=48.65856664752188|11=af478e2d-9d62-459b-acbe-3732d7850ebc|14=991|17=198ffb25-3555-401e-ac8e-1156174cdaad|31=22.4432862835115|32=0|37=656050af-9b8e-4e6a-bf98-99524bab9d4f|38=991|39=2|44=74.87384701153226|54=2|55=RENT3|60=20250629-21:24:16.077|150=2|151=0|448=PAULO|452=1|1010=48220.63954769418|1011=PAULO|10=049|
8=FIX.4.4|9=325|35=8|1=ACC006|6=251.72521930582633|11=98ed968f-5762-437d-839d-298f0a4d49b3|14=333|17=8ea9d0e6-d265-459d-8960-ff34ab223f9c|31=28.81510832591011|32=0|37=fae68578-098c-4152-b1a0-d960f5657b6e|38=333|39=2|44=474.63533028574255|54=2|55=WEGE3|60=20250629-21:24:16.077|150=2|151=0|448=CARLOS|452=1|1010=83824.49802884017|1011=CARLOS|10=193|
8=FIX.4.4|9=321|35=8|1=ACC003|6=385.8904920291112|11=03a3bad5-e656-4b82-889b-ddcb89d18c32|14=431|17=90558b9a-fb6c-4344-90e2-5a6c8c4bca34|31=466.54975580293257|32=0|37=cea373ef-6771-4235-9ab0-198bb375fe5f|38=431|39=2|44=305.2312282552898|54=2|55=RENT3|60=20250629-21:24:16.078|150=2|151=0|448=JOSE|452=1|1010=166318.80206454694|1011=JOSE|10=162|
8=FIX.4.4|9=325|35=8|1=ACC010|6=274.6145272078892|11=61beb09c-1f1d-4811-93bc-a1bba8f580bf|14=560|17=3a56eec4-bbb7-4e1b-b3fe-148462bb4795|31=441.4066145608099|32=0|37=711bea41-0f5d-4eef-b76b-00d20f08fd88|38=560|39=2|44=107.82243985496854|54=1|55=BBAS3|60=20250629-21:24:16.078|150=2|151=0|448=CARLOS|452=1|1010=153784.13523641793|1011=CARLOS|10=171|
8=FIX.4.4|9=325|35=8|1=ACC009|6=243.78670525212112|11=9284bbee-fa15-4949-bbe3-61f1918f136d|14=948|17=290944fd-4e4d-4809-a5dd-fe4d88a8cada|31=267.77475328793764|32=0|37=7b9df51d-9ca5-45e9-8431-115f88edb903|38=948|39=2|44=219.7986572163046|54=1|55=WEGE3|60=20250629-21:24:16.078|150=2|151=0|448=CARLOS|452=1|1010=231109.7965790108|1011=CARLOS|10=043|
8=FIX.4.4|9=320|35=8|1=ACC002|6=334.42393192484315|11=3870342f-84f8-4059-bc91-58f2b4e5aa49|14=886|17=89f0a8c7-7fa0-4bd1-ab0a-33bb378f5895|31=386.85809710253477|32=0|37=2358b191-93ad-4562-9600-ac87f9c98552|38=886|39=2|44=281.9897667471515|54=2|55=ABEV3|60=20250629-21:24:16.078|150=2|151=0|448=ANA|452=1|1010=296299.60368541104|1011=ANA|10=184|
8=FIX.4.4|9=319|35=8|1=ACC006|6=228.11107978239144|11=2482acf7-9578-4e45-8134-601c62974c14|14=192|17=920e2ac7-b225-43e1-baa9-d92a541e486a|31=395.9362864774766|32=0|37=00b421d9-3535-4da5-be19-442216d68dd5|38=192|39=2|44=60.28587308730631|54=2|55=PETR4|60=20250629-21:24:16.078|150=2|151=0|448=ANA|452=1|1010=43797.327318219155|1011=ANA|10=010|
8=FIX.4.4|9=322|35=8|1=ACC010|6=230.35863851157694|11=4dffd1fe-e34f-4101-95de-b918f50e020d|14=802|17=5526621b-5393-46bd-81c7-62467b511bbe|31=12.61285819339908|32=0|37=13fafa66-6f62-49d8-aaf1-a94b17fbd16b|38=802|39=2|44=448.1044188297548|54=1|55=ABEV3|60=20250629-21:24:16.078|150=2|151=0|448=MARIA|452=1|1010=184747.6280862847|1011=MARIA|10=201|
8=FIX.4.4|9=323|35=8|1=ACC008|6=395.9204347509958|11=36ad920f-329e-41d0-980c-d9969f9daea4|14=469|17=2fc39b6a-d12c-4e13-b4e4-38ae871503db|31=314.40472282499417|32=0|37=78eeeb5c-a508-4d12-9e89-4dafb0a8dcee|38=469|39=2|44=477.4361466769974|54=2|55=WEGE3|60=20250629-21:24:16.078|150=2|151=0|448=PAULO|452=1|1010=185686.68389821704|1011=PAULO|10=104|
8=FIX.4.4|9=323|35=8|1=ACC006|6=211.56709420022472|11=64843ba1-f6eb-45a6-8c9d-bc989b036ef4|14=389|17=6ab5418c-bce0-471c-8b18-b0385348256e|31=228.4929051381887|32=0|37=d9b27cd9-a446-4a89-b1d7-96d5ec116615|38=389|39=2|44=194.64128326226074|54=2|55=ITUB4|60=20250629-21:24:16.078|150=2|151=0|448=PAULO|452=1|1010=82299.59964388741|1011=PAULO|10=215|
8=FIX.4.4|9=324|35=8|1=ACC010|6=126.00799705877418|11=2162cfdb-31db-4afa-9727-bc6ce3247772|14=684|17=cccb8eb3-e941-4f64-b3fb-6961bd48bda9|31=231.2991138494091|32=0|37=3fff110b-b835-4462-8e90-79a5a9a8b736|38=684|39=2|44=20.71688026813925|54=1|55=VALE3|60=20250629-21:24:16.078|150=2|151=0|448=CARLOS|452=1|1010=86189.46998820154|1011=CARLOS|10=006|
8=FIX.4.4|9=320|35=8|1=ACC005|6=241.72665827947333|11=be788ac2-0c54-470f-9925-7c4abc054ffd|14=590|17=571159ce-e759-432c-be6e-6e59140108a9|31=259.290896405226|32=0|37=d63a2386-5f21-4b6c-ab61-9b2d396ac880|38=590|39=2|44=224.1624201537206|54=2|55=BBDC4|60=20250629-21:24:16.078|150=2|151=0|448=JOSE|452=1|1010=142618.72838488925|1011=JOSE|10=137|
8=FIX.4.4|9=325|35=8|1=ACC010|6=264.74683811175134|11=497b2fa2-ccb7-415d-aa94-8c6700c3bc25|14=729|17=4201fe20-deb5-46b9-b86a-186596e3c168|31=49.5813550864136|32=0|37=7e47aa17-61a0-433c-a63d-787fa41ad267|38=729|39=2|44=479.91232113708907|54=2|55=WEGE3|60=20250629-21:24:16.079|150=2|151=0|448=CARLOS|452=1|1010=193000.44498346673|1011=CARLOS|10=028|
8=FIX.4.4|9=324|35=8|1=ACC009|6=285.45966513898236|11=88472f0a-76a6-4b79-9628-fe1ff47d1f35|14=807|17=059cff64-c2b1-4b98-b9e6-55c987d56461|31=147.50734813566797|32=0|37=e2ca6eee-2a53-4e01-9932-76bb802e138b|38=807|39=2|44=423.4119821422968|54=1|55=PETR4|60=20250629-21:24:16.079|150=2|151=0|448=MARIA|452=1|1010=230365.94976715877|1011=MARIA|10=179|
8=FIX.4.4|9=322|35=8|1=ACC008|6=463.8657618227383|11=c2f3c38b-bab7-4b46-b80a-11536257d285|14=401|17=274f0901-aaa0-4521-845e-d032e20bfbf8|31=439.41252474305986|32=0|37=6fa40727-f1ef-43b5-8488-597e5b0a484f|38=401|39=2|44=488.31899890241675|54=2|55=BBAS3|60=20250629-21:24:16.079|150=2|151=0|448=JOSE|452=1|1010=186010.17049091807|1011=JOSE|10=183|
8=FIX.4.4|9=324|35=8|1=ACC004|6=354.72389790789794|11=8719de30-4576-4c4c-a06a-af38367fb9e1|14=999|17=832569af-857e-4ea1-8a20-63d452d212e5|31=251.28491888016492|32=0|37=5081baf2-8b21-44f4-a669-b4ce0c0ceb51|38=999|39=2|44=458.1628769356309|54=2|55=BBDC4|60=20250629-21:24:16.079|150=2|151=0|448=PAULO|452=1|1010=354369.17400999006|1011=PAULO|10=198|
8=FIX.4.4|9=324|35=8|1=ACC004|6=214.25908286537296|11=85263044-86fd-449d-8cef-fcfe7e4ba345|14=987|17=bec9912c-732d-4de5-a96e-619dbcb27215|31=243.4393656687966|32=0|37=40437691-bdd8-4b86-9e80-f871b61c0ee2|38=987|39=2|44=185.07880006194932|54=1|55=ITUB4|60=20250629-21:24:16.079|150=2|151=0|448=PAULO|452=1|1010=211473.71478812312|1011=PAULO|10=127|
8=FIX.4.4|9=320|35=8|1=ACC006|6=317.591317317057|11=8a180a09-0433-48e8-8ac3-47dc33f06677|14=200|17=bc798e0c-31c2-4407-acfe-c8b1506cdc84|31=354.7535754756276|32=0|37=960e57d3-a5b8-4213-833d-9b3d3b1f3d69|38=200|39=2|44=280.4290591584864|54=1|55=ABEV3|60=20250629-21:24:16.079|150=2|151=0|448=MARIA|452=1|1010=63518.26346341141|1011=MARIA|10=084|
8=FIX.4.4|9=320|35=8|1=ACC008|6=338.6158417017611|11=ce88c881-e720-4a11-8642-35c833c9c11c|14=719|17=2fd1f7a9-9193-473c-8d15-f56817ad00c8|31=418.5884911227206|32=0|37=3dfbcf43-9e95-4637-b990-80917dd99395|38=719|39=2|44=258.6431922808016|54=2|55=ABEV3|60=20250629-21:24:16.079|150=2|151=0|448=JOSE|452=1|1010=243464.79018356622|1011=JOSE|10=203|
8=FIX.4.4|9=324|35=8|1=ACC008|6=292.4728420197865|11=0f9d7d6a-8d72-40e8-b8ff-06193d4e0461|14=786|17=8d3b799b-8076-4d86-b5bd-3339c304f5a6|31=339.09905457808435|32=0|37=2d179606-2cee-4b57-9758-c4d95d71fa94|38=786|39=2|44=245.84662946148865|54=2|55=MGLU3|60=20250629-21:24:16.079|150=2|151=0|448=PAULO|452=1|1010=229883.65382755222|1011=PAULO|10=185|
8=FIX.4.4|9=320|35=8|1=ACC003|6=141.7412692730091|11=0f18b879-bee6-44b3-b49c-4ad0230824ab|14=790|17=570a7257-a8a9-4acc-9f77-77f3f9581215|31=153.11594962983187|32=0|37=df0b3892-8176-4201-b5b7-f5dd241a728b|38=790|39=2|44=130.36658891618634|54=1|55=BBDC4|60=20250629-21:24:16.079|150=2|151=0|448=ANA|452=1|1010=111975.60272567719|1011=ANA|10=209|
8=FIX.4.4|9=321|35=8|1=ACC010|6=212.8292687863742|11=8f85880f-b107-457b-bd7a-3cc17cddddda|14=321|17=1792bde4-e45c-488f-951f-47ee8f04251d|31=286.69711021422967|32=0|37=44175d5c-2812-4e6e-abbe-2d7620035f9e|38=321|39=2|44=138.96142735851873|54=1|55=ITUB4|60=20250629-21:24:16.079|150=2|151=0|448=JOSE|452=1|1010=68318.19528042612|1011=JOSE|10=210|
8=FIX.4.4|9=321|35=8|1=ACC007|6=260.33898452213793|11=736d3728-b100-40cf-945f-5017835f3874|14=534|17=0381e3e1-172a-496a-93e3-1e1ae501c260|31=334.8614248131492|32=0|37=cedfc27a-9b0c-4b38-839e-fccd908342b1|38=534|39=2|44=185.8165442311267|54=2|55=LREN3|60=20250629-21:24:16.079|150=2|151=0|448=JOSE|452=1|1010=139021.01773482165|1011=JOSE|10=032|
8=FIX.4.4|9=318|35=8|1=ACC001|6=191.80723373764624|11=8f7f1d15-9a48-4c1b-a90e-3ac0ab56db4d|14=497|17=3a6b3789-5a22-4ee8-ab9f-4aae44fdb67d|31=34.6741978192409|32=0|37=3dd70dff-255e-4194-bcde-be502b5690b4|38=497|39=2|44=348.94026965605156|54=2|55=ITUB4|60=20250629-21:24:16.079|150=2|151=0|448=ANA|452=1|1010=95328.19516761019|1011=ANA|10=013|
8=FIX.4.4|9=323|35=8|1=ACC009|6=265.464217602844|11=95158086-c903-42fb-96d3-58ef465b5c17|14=316|17=8746339d-d272-479a-b81a-5efbeaafa87e|31=203.72316183513902|32=0|37=7a0ade98-2ad6-48c8-a905-e2e7356161f1|38=316|39=2|44=327.20527337054887|54=2|55=BBDC4|60=20250629-21:24:16.080|150=2|151=0|448=CARLOS|452=1|1010=83886.6927624987|1011=CARLOS|10=146|
8=FIX.4.4|9=320|35=8|1=ACC005|6=331.78188319743316|11=86873416-dd05-40d6-9832-6ce71523bd6a|14=558|17=07fc62ad-5cdd-4df2-86d1-1957a59f1460|31=182.5316936143452|32=0|37=56b4d916-6672-472b-98f0-3c9f4ab8affa|38=558|39=2|44=481.0320727805211|54=1|55=MGLU3|60=20250629-21:24:16.080|150=2|151=0|448=JOSE|452=1|1010=185134.2908241677|1011=JOSE|10=121|
8=FIX.4.4|9=320|35=8|1=ACC009|6=422.2626171525366|11=f30ee8dc-5219-4c4d-b0ea-329af54e7ca2|14=627|17=9070e7ac-3e67-4396-8f4b-70ce53062912|31=476.1600641124797|32=0|37=75d02560-b4dd-4763-b876-d5679f8ec650|38=627|39=2|44=368.36517019259355|54=2|55=WEGE3|60=20250629-21:24:16.080|150=2|151=0|448=JOSE|452=1|1010=264758.6609546405|1011=JOSE|10=122|
8=FIX.4.4|9=318|35=8|1=ACC003|6=442.8326718945609|11=eba9b932-8599-455b-9c04-b2e30866e93e|14=525|17=095c85d7-155b-4f12-a973-6cb0c7ad0e75|31=451.6129945366216|32=0|37=ae6635e5-950c-4be1-a581-c54977fc031a|38=525|39=2|44=434.05234925250016|54=1|55=BBAS3|60=20250629-21:24:16.080|150=2|151=0|448=ANA|452=1|1010=232487.1527446445|1011=ANA|10=152|
8=FIX.4.4|9=319|35=8|1=ACC005|6=217.87111272479387|11=1202c306-f650-471d-b60c-623263ab3e94|14=238|17=c393e342-7d36-46d0-870e-297203900d89|31=345.196992040698|32=0|37=62904b21-140e-4059-bddb-2eb30b007d77|38=238|39=2|44=90.54523340888974|54=2|55=ABEV3|60=20250629-21:24:16.080|150=2|151=0|448=JOSE|452=1|1010=51853.32482850094|1011=JOSE|10=151|
8=FIX.4.4|9=324|35=8|1=ACC008|6=381.2890972650998|11=93f0b598-b974-46c5-95f3-df7f70274ee4|14=773|17=bc660c77-994d-48a3-90c8-f9054f5e0069|31=414.98200248891334|32=0|37=8ed28b09-92ba-439c-a111-0af0ef4d1544|38=773|39=2|44=347.59619204128626|54=1|55=VALE3|60=20250629-21:24:16.080|150=2|151=0|448=MARIA|452=1|1010=294736.47218592215|1011=MARIA|10=080|
8=FIX.4.4|9=323|35=8|1=ACC004|6=134.22578789599186|11=4f066f48-6f6d-4605-b993-0bc7eb3f209f|14=629|17=d57c487d-4d91-4201-ad30-4b3253134baa|31=205.83252923655218|32=0|37=c58c512c-270a-4f45-a9d6-41b60e84a15d|38=629|39=2|44=62.61904655543155|54=2|55=WEGE3|60=20250629-21:24:16.080|150=2|151=0|448=PAULO|452=1|1010=84428.02058657887|1011=PAULO|10=068|
8=FIX.4.4|9=324|35=8|1=ACC009|6=267.3418037865036|11=301ca6fb-aba6-41a7-bddc-abe3c102ba9c|14=485|17=a8f9715a-18fb-4555-96a5-e4386a545a7e|31=449.3153645945953|32=0|37=3763da33-4b72-4464-84bf-fcd131110847|38=485|39=2|44=85.36824297841189|54=2|55=VALE3|60=20250629-21:24:16.080|150=2|151=0|448=CARLOS|452=1|1010=129660.77483645423|1011=CARLOS|10=133|
8=FIX.4.4|9=325|35=8|1=ACC005|6=258.01391595884826|11=b8645ff5-ed81-418f-a5fe-474a0832add6|14=806|17=0cf1e6d5-9e06-4ba5-9e01-f53e5e9b3b80|31=99.02275762449439|32=0|37=4de40835-9ab9-41af-b295-3a946c5c0eac|38=806|39=2|44=417.00507429320214|54=2|55=ABEV3|60=20250629-21:24:16.080|150=2|151=0|448=CARLOS|452=1|1010=207959.2162628317|1011=CARLOS|10=015|
8=FIX.4.4|9=325|35=8|1=ACC004|6=232.14622647406603|11=1a318ab0-ebd6-49c1-a7f5-4b72e0298c42|14=115|17=8eda31e8-afe3-4dee-97de-166d1e19079c|31=40.41420088711116|32=0|37=5d6da923-0cc4-4486-abfe-2faf2c660b55|38=115|39=2|44=423.8782520610209|54=2|55=VALE3|60=20250629-21:24:16.080|150=2|151=0|448=CARLOS|452=1|1010=26696.816044517593|1011=CARLOS|10=056|
8=FIX.4.4|9=319|35=8|1=ACC010|6=99.0964625040574|11=ba759bd2-b30a-49fc-bcb4-29afd5841674|14=583|17=2e7a618d-f558-45f4-bd6b-229721ffc2c5|31=100.89762562415179|32=0|37=d39180cd-3065-4579-b2e4-117b49c996fd|38=583|39=2|44=97.295299383963|54=1|55=LREN3|60=20250629-21:24:16.080|150=2|151=0|448=MARIA|452=1|1010=57773.23763986547|1011=MARIA|10=028|
8=FIX.4.4|9=325|35=8|1=ACC006|6=196.31713986139192|11=2623ec05-1edb-4f48-a115-303a44ef305d|14=591|17=f031eaad-ef70-4dcd-af36-b97164ebb451|31=57.95080808043304|32=0|37=819d6aa6-eef3-4d3a-b719-d8765c93ecc0|38=591|39=2|44=334.6834716423508|54=2|55=ABEV3|60=20250629-21:24:16.080|150=2|151=0|448=CARLOS|452=1|1010=116023.42965808262|1011=CARLOS|10=071|
8=FIX.4.4|9=320|35=8|1=ACC009|6=320.9000031477999|11=00855971-801b-453e-baac-52f39efda9a1|14=240|17=604c98b3-2be2-4c23-b38c-b18eb3bf62d1|31=398.3176675099187|32=0|37=25de1852-7b87-45fa-8947-fef38ba40d77|38=240|39=2|44=243.48233878568115|54=2|55=WEGE3|60=20250629-21:24:16.080|150=2|151=0|448=JOSE|452=1|1010=77016.00075547198|1011=JOSE|10=038|
8=FIX.4.4|9=318|35=8|1=ACC004|6=292.709815790956|11=2de856bc-2f3e-4c86-bdc4-c4aff05861c8|14=268|17=f08eebb4-e8cb-4d33-8559-da42aad75e9f|31=406.4997072196799|32=0|37=96f38766-d465-43d8-ae99-33a1f5ab8b69|38=268|39=2|44=178.91992436223205|54=1|55=BBAS3|60=20250629-21:24:16.080|150=2|151=0|448=JOSE|452=1|1010=78446.2306319762|1011=JOSE|10=244|
8=FIX.4.4|9=322|35=8|1=ACC007|6=413.3181123576379|11=4ee6a649-49f6-407a-8b4a-d0d2c9cf75aa|14=795|17=e870927d-9ff2-4bd5-bd5f-de09da3319ff|31=468.772244711553|32=0|37=358b8ade-d2b1-4d1e-a58d-c290165078de|38=795|39=2|44=357.8639800037228|54=1|55=ITUB4|60=20250629-21:24:16.081|150=2|151=0|448=CARLOS|452=1|1010=328587.8993243221|1011=CARLOS|10=056|
8=FIX.4.4|9=317|35=8|1=ACC007|6=315.656298850642|11=441fc272-a4ed-4c58-936f-c6bfb1c1b688|14=891|17=74f066c8-852c-4d72-add7-4596e0bb7476|31=137.8209917771921|32=0|37=d311356a-a4e2-4036-a802-28533780782d|38=891|39=2|44=493.4916059240919|54=2|55=RENT3|60=20250629-21:24:16.081|150=2|151=0|448=JOSE|452=1|1010=281249.762275922|1011=JOSE|10=115|
8=FIX.4.4|9=320|35=8|1=ACC006|6=229.382842264938|11=fea00cb0-0d58-4324-be41-2079e576c776|14=276|17=dbb5c1a3-6760-4df1-8e2f-ff8870c0d4b0|31=343.82367224819643|32=0|37=a3c70f83-17ee-4c8d-9b59-107e62fc2a46|38=276|39=2|44=114.94201228167958|54=1|55=LREN3|60=20250629-21:24:16.081|150=2|151=0|448=JOSE|452=1|1010=63309.66446512289|1011=JOSE|10=048|
8=FIX.4.4|9=320|35=8|1=ACC002|6=297.52411970376903|11=9f1b85c3-bacf-454d-8b0d-0cdf6f89ac30|14=188|17=c71f786b-6b22-475f-af03-0405970e4a2c|31=244.07272164442895|32=0|37=015ef00a-7f06-42c8-876d-f15492538410|38=188|39=2|44=350.9755177631091|54=2|55=ITUB4|60=20250629-21:24:16.081|150=2|151=0|448=ANA|452=1|1010=55934.534504308576|1011=ANA|10=064|
8=FIX.4.4|9=326|35=8|1=ACC009|6=190.37072028145747|11=d7c4f607-34aa-4a03-88df-73a92d0dbe31|14=842|17=8b016648-7a6f-4762-864d-7526d30ec3ff|31=193.82620354029368|32=0|37=d51ebaf0-66e2-445f-8049-a8cde45dbbc2|38=842|39=2|44=186.91523702262128|54=2|55=PETR4|60=20250629-21:24:16.081|150=2|151=0|448=CARLOS|452=1|1010=160292.1464769872|1011=CARLOS|10=245|
8=FIX.4.4|9=318|35=8|1=ACC002|6=401.7840283189678|11=34d77bdf-d6f7-460b-a87f-d6eeb870371e|14=806|17=258077c0-269d-4627-88b0-c2e1e0dafce3|31=498.0518159835002|32=0|37=2495e4e0-c8d5-4831-8519-740b7e19f51c|38=806|39=2|44=305.5162406544354|54=1|55=BBDC4|60=20250629-21:24:16.081|150=2|151=0|448=ANA|452=1|1010=323837.92682508804|1011=ANA|10=209|
8=FIX.4.4|9=325|35=8|1=ACC001|6=111.71925766072471|11=57787a80-d515-4a82-9f78-4fed0594b59c|14=802|17=5b3d686d-5b4f-4a3f-889a-3bc8c55ca951|31=212.27005412795393|32=0|37=2fce9db0-c574-42ec-a440-955e0a990861|38=802|39=2|44=11.16846119349548|54=1|55=MGLU3|60=20250629-21:24:16.081|150=2|151=0|448=CARLOS|452=1|1010=89598.84464390122|1011=CARLOS|10=025|
8=FIX.4.4|9=323|35=8|1=ACC006|6=194.75724357515992|11=ab70a126-f4b9-44ba-aa17-d0f8e62e0023|14=453|17=45233cea-efc8-41ae-8a77-3e1c9266e81c|31=239.66031298742533|32=0|37=f9f41b0a-d582-41f6-a025-a1f014506aa9|38=453|39=2|44=149.8541741628945|54=2|55=LREN3|60=20250629-21:24:16.081|150=2|151=0|448=MARIA|452=1|1010=88225.03133954744|1011=MARIA|10=231|
8=FIX.4.4|9=325|35=8|1=ACC009|6=188.72320019734218|11=bd26a93d-2309-4b0d-adf8-78ee9809b276|14=300|17=0480e196-7fbd-48a1-abc8-df4a4fff6f69|31=83.20111567905647|32=0|37=a94d912a-fb07-4fe4-970b-cb954f41ccf9|38=300|39=2|44=294.2452847156279|54=2|55=BBAS3|60=20250629-21:24:16.081|150=2|151=0|448=CARLOS|452=1|1010=56616.960059202655|1011=CARLOS|10=109|
8=FIX.4.4|9=326|35=8|1=ACC001|6=252.9525675190411|11=4116ce92-8ba5-4def-ad81-d0bda9e389c6|14=969|17=2fb16593-2b0f-420f-bf79-9ad6aaae56c3|31=389.57625727857214|32=0|37=b9f022b6-abd9-45a3-83df-753a9fb195c2|38=969|39=2|44=116.32887775951005|54=1|55=VALE3|60=20250629-21:24:16.081|150=2|151=0|448=CARLOS|452=1|1010=245111.03792595083|1011=CARLOS|10=233|
8=FIX.4.4|9=323|35=8|1=ACC007|6=316.1402313523276|11=80c3edee-8291-46d7-8eee-0229ca01ee56|14=497|17=8dfeb707-15fe-4841-9434-8dd95a3ebefd|31=350.2070212706308|32=0|37=bd76d37d-02cb-4f9a-89dc-9144566397e9|38=497|39=2|44=282.0734414340244|54=2|55=BBDC4|60=20250629-21:24:16.081|150=2|151=0|448=CARLOS|452=1|1010=157121.6949821068|1011=CARLOS|10=096|
8=FIX.4.4|9=320|35=8|1=ACC005|6=248.4164963814377|11=e049434a-8c20-4235-9303-05eec9da0759|14=487|17=590f3081-10ff-4377-b8e2-a1702f9752c8|31=176.65070169950744|32=0|37=9be3db69-7a8d-4951-be2f-8ba313b33206|38=487|39=2|44=320.182291063368|54=2|55=WEGE3|60=20250629-21:24:16.081|150=2|151=0|448=JOSE|452=1|1010=120978.83373776016|1011=JOSE|10=174|
8=FIX.4.4|9=319|35=8|1=ACC005|6=340.12888228968313|11=7abb7db5-48dd-4d87-b12e-589979816327|14=288|17=68df6b6a-0715-4ef2-8b77-e9d115cd85e9|31=380.0654501709711|32=0|37=52a49161-ae8f-4401-b955-6910c1a55a80|38=288|39=2|44=300.19231440839525|54=2|55=PETR4|60=20250629-21:24:16.082|150=2|151=0|448=ANA|452=1|1010=97957.11809942874|1011=ANA|10=188|
8=FIX.4.4|9=326|35=8|1=ACC003|6=312.16081431953313|11=e5e5817a-6964-4bd1-999d-45dfeb71b049|14=748|17=438c2087-8c88-466b-aab1-d6e88a9bea39|31=225.68521242445664|32=0|37=af0bfaec-f301-4c82-b0d3-d9b2188bd103|38=748|39=2|44=398.63641621460965|54=1|55=MGLU3|60=20250629-21:24:16.082|150=2|151=0|448=CARLOS|452=1|1010=233496.2891110108|1011=CARLOS|10=026|
8=FIX.4.4|9=323|35=8|1=ACC005|6=282.24416949649964|11=5aeecfff-d814-40b1-bc27-431118c70693|14=421|17=635a1d9e-8617-4c1c-a9e8-c6b46248bdb5|31=348.844636072962|32=0|37=ebc63751-3356-4373-aa04-69544c5f3dc4|38=421|39=2|44=215.64370292003727|54=1|55=BBAS3|60=20250629-21:24:16.082|150=2|151=0|448=PAULO|452=1|1010=118824.79535802634|1011=PAULO|10=084|
8=FIX.4.4|9=322|35=8|1=ACC010|6=302.0485748880352|11=fd61cc4e-4604-46be-a8aa-1d8be246813d|14=748|17=1a784a90-71fa-415a-b004-4db10b3b1bd8|31=313.4378359470739|32=0|37=ba4ba5b8-a25a-4733-b124-5fcf544c3632|38=748|39=2|44=290.6593138289966|54=2|55=LREN3|60=20250629-21:24:16.082|150=2|151=0|448=MARIA|452=1|1010=225932.33401625033|1011=MARIA|10=201|
8=FIX.4.4|9=324|35=8|1=ACC007|6=415.70262765651074|11=724fe81a-f6be-4fa4-bcc4-51dd4044fb55|14=356|17=52083232-ee33-4e9e-b22d-e9df930eae6c|31=353.4354376806729|32=0|37=554fd577-4144-4a86-9c54-9817087a403d|38=356|39=2|44=477.96981763234857|54=1|55=PETR4|60=20250629-21:24:16.082|150=2|151=0|448=PAULO|452=1|1010=147990.13544571784|1011=PAULO|10=013|
8=FIX.4.4|9=325|35=8|1=ACC007|6=247.03410607010431|11=c747a3bf-d891-4de2-8dbe-c6c4f74bc8b0|14=194|17=9b6231e5-3ca4-4aea-abfd-bb615da732b2|31=357.97267134013185|32=0|37=882677e0-a089-4660-bed6-395d3c298f82|38=194|39=2|44=136.0955408000768|54=1|55=RENT3|60=20250629-21:24:16.082|150=2|151=0|448=CARLOS|452=1|1010=47924.61657760024|1011=CARLOS|10=054|
8=FIX.4.4|9=326|35=8|1=ACC002|6=288.0036323422495|11=abfab80d-a315-40bb-a754-0665c7fbf4fa|14=735|17=d913936e-8dcf-4607-9b2e-05219152ade4|31=174.36911481690484|32=0|37=1fb93186-f4f3-48cf-80ee-93b7e82047df|38=735|39=2|44=401.63814986759417|54=1|55=ABEV3|60=20250629-21:24:16.082|150=2|151=0|448=CARLOS|452=1|1010=211682.66977155337|1011=CARLOS|10=028|
8=FIX.4.4|9=322|35=8|1=ACC004|6=186.10260311224283|11=981093de-c846-42b7-918c-df2756cb3aa8|14=402|17=78c37154-be11-4564-8ef1-869022cf33ac|31=212.90401005768055|32=0|37=aaec7878-fa01-4c46-9e51-710c348d08f7|38=402|39=2|44=159.30119616680508|54=1|55=MGLU3|60=20250629-21:24:16.082|150=2|151=0|448=JOSE|452=1|1010=74813.24645112162|1011=JOSE|10=116|
8=FIX.4.4|9=323|35=8|1=ACC002|6=238.97934843882896|11=c4ce2380-092c-4b5c-94b8-a316e2c27805|14=206|17=8fc98d92-0bef-4ecb-8a84-e833c888596f|31=302.3500899529229|32=0|37=90062d33-dd0f-4bc5-80f8-96162313f4ff|38=206|39=2|44=175.60860692473506|54=2|55=BBDC4|60=20250629-21:24:16.082|150=2|151=0|448=PAULO|452=1|1010=49229.74577839877|1011=PAULO|10=151|
8=FIX.4.4|9=324|35=8|1=ACC004|6=305.3985670192509|11=083d61dc-5e0f-4689-9892-a88dcf57df24|14=527|17=17ed64ab-8a30-4d3c-ab11-dc75e2db14c6|31=205.00582675478074|32=0|37=082b9e08-712b-4e43-aa87-6202d6132b80|38=527|39=2|44=405.79130728372104|54=2|55=BBAS3|60=20250629-21:24:16.082|150=2|151=0|448=PAULO|452=1|1010=160945.04481914523|1011=PAULO|10=162|
8=FIX.4.4|9=321|35=8|1=ACC007|6=364.2444317060771|11=ea61d560-864f-49fe-bbdf-8b95130ee7bd|14=138|17=7edbb671-9321-47f0-8576-80effd628762|31=484.5200332820863|32=0|37=34b72949-738b-4477-84bd-9120016e4441|38=138|39=2|44=243.96883013006794|54=1|55=WEGE3|60=20250629-21:24:16.082|150=2|151=0|448=JOSE|452=1|1010=50265.731575438636|1011=JOSE|10=026|
8=FIX.4.4|9=319|35=8|1=ACC004|6=185.1819175063357|11=7402f7d7-d302-49a3-af77-6d0ee7b05603|14=731|17=d31f2b13-63dd-43ab-b8b6-2d6f41658106|31=118.07856107727787|32=0|37=e1fd9496-c61c-4eee-a2e4-9f32faef9c55|38=731|39=2|44=252.28527393539352|54=2|55=LREN3|60=20250629-21:24:16.082|150=2|151=0|448=ANA|452=1|1010=135367.9816971314|1011=ANA|10=224|
8=FIX.4.4|9=322|35=8|1=ACC008|6=204.48115333068574|11=ef0037f8-84fe-4172-849e-11aba054d1d5|14=818|17=49220def-ea5c-4daf-aa8d-7acdd89542d7|31=70.43258057246834|32=0|37=a783e5e9-a7a9-447d-9023-c4ca3fb8fd3c|38=818|39=2|44=338.52972608890315|54=1|55=MGLU3|60=20250629-21:24:16.082|150=2|151=0|448=JOSE|452=1|1010=167265.58342450095|1011=JOSE|10=198|
8=FIX.4.4|9=324|35=8|1=ACC009|6=206.25908568043454|11=877d860d-82fc-434c-85d1-956ae6d6965d|14=341|17=c511fef8-49d4-459a-83c3-148759fe6075|31=297.50991928937754|32=0|37=42339aa9-21d0-40bf-b5b9-576d20fe31b9|38=341|39=2|44=115.00825207149155|54=2|55=MGLU3|60=20250629-21:24:16.082|150=2|151=0|448=PAULO|452=1|1010=70334.34821702818|1011=PAULO|10=060|
8=FIX.4.4|9=323|35=8|1=ACC009|6=434.9540494824196|11=a0361092-15b3-4ca1-a7ff-5a00444a57ea|14=728|17=8a137152-5e65-43c4-9d6e-823e07419d84|31=389.4223736853997|32=0|37=81bce215-3258-4671-894c-d14795e97da8|38=728|39=2|44=480.48572527943946|54=2|55=BBDC4|60=20250629-21:24:16.082|150=2|151=0|448=MARIA|452=1|1010=316646.54802320147|1011=MARIA|10=248|
8=FIX.4.4|9=320|35=8|1=ACC003|6=143.02684517249378|11=03919e08-5fe7-4b25-a8c3-cb365cbb9f8a|14=800|17=576ab22d-f45a-4d4e-8ab6-ac55b774ecfe|31=47.06720122177815|32=0|37=19ff85e2-0878-4ef5-a42b-94ec63e8caad|38=800|39=2|44=238.98648912320942|54=1|55=WEGE3|60=20250629-21:24:16.082|150=2|151=0|448=ANA|452=1|1010=114421.47613799502|1011=ANA|10=025|
8=FIX.4.4|9=320|35=8|1=ACC001|6=336.6384477648023|11=f7d202b1-6fb0-4443-bfa2-8ec66e675e1b|14=929|17=5f2ea34b-935c-484b-82b2-ee980076fee8|31=175.49097628003412|32=0|37=d4b8dea5-78a5-4389-bbed-ed3ef3bb39cb|38=929|39=2|44=497.7859192495705|54=1|55=WEGE3|60=20250629-21:24:16.082|150=2|151=0|448=JOSE|452=1|1010=312737.1179735013|1011=JOSE|10=149|
8=FIX.4.4|9=326|35=8|1=ACC010|6=149.45885034648515|11=83fd545f-2258-4f4b-b083-3fdf99915c23|14=740|17=e9e5f2fc-e7e2-43a7-ac60-a9200d743cde|31=215.05732769823217|32=0|37=d3194d87-e066-4d88-8413-a36b18b59385|38=740|39=2|44=83.86037299473811|54=2|55=VALE3|60=20250629-21:24:16.084|150=2|151=0|448=CARLOS|452=1|1010=110599.54925639901|1011=CARLOS|10=035|
8=FIX.4.4|9=320|35=8|1=ACC010|6=64.33236753368989|11=b3b0d0aa-b817-4588-ab5d-4454bf9fb98a|14=504|17=309916d3-c166-4150-be47-4a2891283342|31=81.45816879754113|32=0|37=4c1d12bc-3e7a-4204-bbc6-dad3cc94c6e6|38=504|39=2|44=47.20656626983865|54=1|55=LREN3|60=20250629-21:24:16.084|150=2|151=0|448=JOSE|452=1|1010=32423.513236979703|1011=JOSE|10=247|
8=FIX.4.4|9=323|35=8|1=ACC006|6=128.90680906316337|11=12889383-79d1-481d-b1b3-aaa7776f6de7|14=113|17=d617f55e-3cdd-42c9-af77-85f8a37c9383|31=16.74664226223298|32=0|37=2ebf74db-337e-45b1-8f4d-895e3a3105f4|38=113|39=2|44=241.06697586409373|54=2|55=RENT3|60=20250629-21:24:16.084|150=2|151=0|448=MARIA|452=1|1010=14566.46942413746|1011=MARIA|10=165|
8=FIX.4.4|9=320|35=8|1=ACC007|6=281.17346327975343|11=2a509eb0-761e-42eb-932d-b05a2f53122a|14=449|17=85ada9b9-b62b-42bd-8b1b-7bcd17b6662c|31=230.00558583489234|32=0|37=b25d16a4-10bd-49d2-a262-dbad8a7908ed|38=449|39=2|44=332.3413407246145|54=1|55=ITUB4|60=20250629-21:24:16.084|150=2|151=0|448=ANA|452=1|1010=126246.88501260929|1011=ANA|10=091|
8=FIX.4.4|9=324|35=8|1=ACC010|6=182.37649119530602|11=cf3cb2f3-61f1-43c3-a6e2-591cac23f454|14=457|17=876b9234-8ed1-4c5d-a595-6939a20487b8|31=141.25322824244702|32=0|37=a3b8a9c2-f509-4106-bb14-dd337a944e66|38=457|39=2|44=223.49975414816504|54=2|55=VALE3|60=20250629-21:24:16.084|150=2|151=0|448=MARIA|452=1|1010=83346.05647625485|1011=MARIA|10=052|
8=FIX.4.4|9=323|35=8|1=ACC003|6=418.51990272878527|11=e78f77c8-eb36-4470-b806-0c122d1fbc24|14=904|17=dbdc2947-b371-49e3-8dba-408c34e05ab7|31=461.67284122727386|32=0|37=1155a1e2-7bb0-4f10-bd5f-4f0d0848bc10|38=904|39=2|44=375.3669642302967|54=1|55=MGLU3|60=20250629-21:24:16.084|150=2|151=0|448=PAULO|452=1|1010=378341.9920668219|1011=PAULO|10=000|
